{
  "_format": "hh3-artifact-1",
  "contractName": "ChannelRegistry",
  "sourceName": "contracts/core/ChannelRegistry.sol",
  "abi": [
    {
      "inputs": [
        {
          "internalType": "address",
          "name": "initialOwner",
          "type": "address"
        }
      ],
      "stateMutability": "nonpayable",
      "type": "constructor"
    },
    {
      "inputs": [],
      "name": "ChallengePeriodNotElapsed",
      "type": "error"
    },
    {
      "inputs": [],
      "name": "ChannelAlreadyExists",
      "type": "error"
    },
    {
      "inputs": [],
      "name": "ChannelNotFound",
      "type": "error"
    },
    {
      "inputs": [],
      "name": "InvalidChannelState",
      "type": "error"
    },
    {
      "inputs": [],
      "name": "InvalidNonce",
      "type": "error"
    },
    {
      "inputs": [],
      "name": "InvalidStateTransition",
      "type": "error"
    },
    {
      "inputs": [
        {
          "internalType": "address",
          "name": "owner",
          "type": "address"
        }
      ],
      "name": "OwnableInvalidOwner",
      "type": "error"
    },
    {
      "inputs": [
        {
          "internalType": "address",
          "name": "account",
          "type": "address"
        }
      ],
      "name": "OwnableUnauthorizedAccount",
      "type": "error"
    },
    {
      "inputs": [],
      "name": "UnauthorizedOperator",
      "type": "error"
    },
    {
      "anonymous": false,
      "inputs": [
        {
          "indexed": false,
          "internalType": "uint256",
          "name": "newPeriod",
          "type": "uint256"
        }
      ],
      "name": "ChallengePeriodUpdated",
      "type": "event"
    },
    {
      "anonymous": false,
      "inputs": [
        {
          "indexed": true,
          "internalType": "bytes32",
          "name": "channelId",
          "type": "bytes32"
        }
      ],
      "name": "ChannelClosed",
      "type": "event"
    },
    {
      "anonymous": false,
      "inputs": [
        {
          "indexed": true,
          "internalType": "bytes32",
          "name": "channelId",
          "type": "bytes32"
        },
        {
          "indexed": true,
          "internalType": "address",
          "name": "challenger",
          "type": "address"
        }
      ],
      "name": "ChannelDisputed",
      "type": "event"
    },
    {
      "anonymous": false,
      "inputs": [
        {
          "indexed": true,
          "internalType": "bytes32",
          "name": "channelId",
          "type": "bytes32"
        },
        {
          "indexed": false,
          "internalType": "bytes32",
          "name": "finalStateRoot",
          "type": "bytes32"
        }
      ],
      "name": "ChannelFinalized",
      "type": "event"
    },
    {
      "anonymous": false,
      "inputs": [
        {
          "indexed": true,
          "internalType": "bytes32",
          "name": "channelId",
          "type": "bytes32"
        },
        {
          "indexed": true,
          "internalType": "address",
          "name": "dealer",
          "type": "address"
        },
        {
          "indexed": true,
          "internalType": "uint256",
          "name": "dealId",
          "type": "uint256"
        },
        {
          "indexed": false,
          "internalType": "uint256",
          "name": "depositAmount",
          "type": "uint256"
        }
      ],
      "name": "ChannelOpened",
      "type": "event"
    },
    {
      "anonymous": false,
      "inputs": [
        {
          "indexed": true,
          "internalType": "bytes32",
          "name": "channelId",
          "type": "bytes32"
        },
        {
          "indexed": false,
          "internalType": "bytes32",
          "name": "stateRoot",
          "type": "bytes32"
        },
        {
          "indexed": false,
          "internalType": "uint256",
          "name": "nonce",
          "type": "uint256"
        }
      ],
      "name": "ChannelStateUpdated",
      "type": "event"
    },
    {
      "anonymous": false,
      "inputs": [
        {
          "indexed": true,
          "internalType": "address",
          "name": "operator",
          "type": "address"
        },
        {
          "indexed": false,
          "internalType": "bool",
          "name": "authorized",
          "type": "bool"
        }
      ],
      "name": "OperatorSet",
      "type": "event"
    },
    {
      "anonymous": false,
      "inputs": [
        {
          "indexed": true,
          "internalType": "address",
          "name": "previousOwner",
          "type": "address"
        },
        {
          "indexed": true,
          "internalType": "address",
          "name": "newOwner",
          "type": "address"
        }
      ],
      "name": "OwnershipTransferStarted",
      "type": "event"
    },
    {
      "anonymous": false,
      "inputs": [
        {
          "indexed": true,
          "internalType": "address",
          "name": "previousOwner",
          "type": "address"
        },
        {
          "indexed": true,
          "internalType": "address",
          "name": "newOwner",
          "type": "address"
        }
      ],
      "name": "OwnershipTransferred",
      "type": "event"
    },
    {
      "inputs": [],
      "name": "acceptOwnership",
      "outputs": [],
      "stateMutability": "nonpayable",
      "type": "function"
    },
    {
      "inputs": [
        {
          "internalType": "bytes32",
          "name": "channelId",
          "type": "bytes32"
        }
      ],
      "name": "canCloseChannel",
      "outputs": [
        {
          "internalType": "bool",
          "name": "",
          "type": "bool"
        }
      ],
      "stateMutability": "view",
      "type": "function"
    },
    {
      "inputs": [],
      "name": "challengePeriod",
      "outputs": [
        {
          "internalType": "uint256",
          "name": "",
          "type": "uint256"
        }
      ],
      "stateMutability": "view",
      "type": "function"
    },
    {
      "inputs": [
        {
          "internalType": "bytes32",
          "name": "",
          "type": "bytes32"
        }
      ],
      "name": "channels",
      "outputs": [
        {
          "internalType": "bytes32",
          "name": "channelId",
          "type": "bytes32"
        },
        {
          "internalType": "address",
          "name": "dealer",
          "type": "address"
        },
        {
          "internalType": "address",
          "name": "counterparty",
          "type": "address"
        },
        {
          "internalType": "uint256",
          "name": "dealId",
          "type": "uint256"
        },
        {
          "internalType": "uint256",
          "name": "depositAmount",
          "type": "uint256"
        },
        {
          "internalType": "uint256",
          "name": "openedAt",
          "type": "uint256"
        },
        {
          "internalType": "uint256",
          "name": "finalizedAt",
          "type": "uint256"
        },
        {
          "internalType": "enum ChannelRegistry.ChannelState",
          "name": "state",
          "type": "uint8"
        },
        {
          "internalType": "bytes32",
          "name": "stateRoot",
          "type": "bytes32"
        },
        {
          "internalType": "uint256",
          "name": "nonce",
          "type": "uint256"
        }
      ],
      "stateMutability": "view",
      "type": "function"
    },
    {
      "inputs": [
        {
          "internalType": "bytes32",
          "name": "channelId",
          "type": "bytes32"
        }
      ],
      "name": "closeChannel",
      "outputs": [],
      "stateMutability": "nonpayable",
      "type": "function"
    },
    {
      "inputs": [
        {
          "internalType": "uint256",
          "name": "",
          "type": "uint256"
        },
        {
          "internalType": "uint256",
          "name": "",
          "type": "uint256"
        }
      ],
      "name": "dealChannels",
      "outputs": [
        {
          "internalType": "bytes32",
          "name": "",
          "type": "bytes32"
        }
      ],
      "stateMutability": "view",
      "type": "function"
    },
    {
      "inputs": [
        {
          "internalType": "bytes32",
          "name": "channelId",
          "type": "bytes32"
        }
      ],
      "name": "disputeChannel",
      "outputs": [],
      "stateMutability": "nonpayable",
      "type": "function"
    },
    {
      "inputs": [
        {
          "internalType": "bytes32",
          "name": "channelId",
          "type": "bytes32"
        },
        {
          "internalType": "bytes32",
          "name": "finalStateRoot",
          "type": "bytes32"
        }
      ],
      "name": "finalizeChannel",
      "outputs": [],
      "stateMutability": "nonpayable",
      "type": "function"
    },
    {
      "inputs": [
        {
          "internalType": "bytes32",
          "name": "channelId",
          "type": "bytes32"
        }
      ],
      "name": "getChannel",
      "outputs": [
        {
          "components": [
            {
              "internalType": "bytes32",
              "name": "channelId",
              "type": "bytes32"
            },
            {
              "internalType": "address",
              "name": "dealer",
              "type": "address"
            },
            {
              "internalType": "address",
              "name": "counterparty",
              "type": "address"
            },
            {
              "internalType": "uint256",
              "name": "dealId",
              "type": "uint256"
            },
            {
              "internalType": "uint256",
              "name": "depositAmount",
              "type": "uint256"
            },
            {
              "internalType": "uint256",
              "name": "openedAt",
              "type": "uint256"
            },
            {
              "internalType": "uint256",
              "name": "finalizedAt",
              "type": "uint256"
            },
            {
              "internalType": "enum ChannelRegistry.ChannelState",
              "name": "state",
              "type": "uint8"
            },
            {
              "internalType": "bytes32",
              "name": "stateRoot",
              "type": "bytes32"
            },
            {
              "internalType": "uint256",
              "name": "nonce",
              "type": "uint256"
            }
          ],
          "internalType": "struct ChannelRegistry.Channel",
          "name": "",
          "type": "tuple"
        }
      ],
      "stateMutability": "view",
      "type": "function"
    },
    {
      "inputs": [
        {
          "internalType": "uint256",
          "name": "dealId",
          "type": "uint256"
        }
      ],
      "name": "getDealChannels",
      "outputs": [
        {
          "internalType": "bytes32[]",
          "name": "",
          "type": "bytes32[]"
        }
      ],
      "stateMutability": "view",
      "type": "function"
    },
    {
      "inputs": [
        {
          "internalType": "bytes32",
          "name": "channelId",
          "type": "bytes32"
        },
        {
          "internalType": "address",
          "name": "dealer",
          "type": "address"
        },
        {
          "internalType": "address",
          "name": "counterparty",
          "type": "address"
        },
        {
          "internalType": "uint256",
          "name": "dealId",
          "type": "uint256"
        },
        {
          "internalType": "uint256",
          "name": "depositAmount",
          "type": "uint256"
        }
      ],
      "name": "openChannel",
      "outputs": [],
      "stateMutability": "nonpayable",
      "type": "function"
    },
    {
      "inputs": [
        {
          "internalType": "address",
          "name": "",
          "type": "address"
        }
      ],
      "name": "operators",
      "outputs": [
        {
          "internalType": "bool",
          "name": "",
          "type": "bool"
        }
      ],
      "stateMutability": "view",
      "type": "function"
    },
    {
      "inputs": [],
      "name": "owner",
      "outputs": [
        {
          "internalType": "address",
          "name": "",
          "type": "address"
        }
      ],
      "stateMutability": "view",
      "type": "function"
    },
    {
      "inputs": [],
      "name": "pendingOwner",
      "outputs": [
        {
          "internalType": "address",
          "name": "",
          "type": "address"
        }
      ],
      "stateMutability": "view",
      "type": "function"
    },
    {
      "inputs": [],
      "name": "renounceOwnership",
      "outputs": [],
      "stateMutability": "nonpayable",
      "type": "function"
    },
    {
      "inputs": [
        {
          "internalType": "uint256",
          "name": "newPeriod",
          "type": "uint256"
        }
      ],
      "name": "setChallengePeriod",
      "outputs": [],
      "stateMutability": "nonpayable",
      "type": "function"
    },
    {
      "inputs": [
        {
          "internalType": "address",
          "name": "operator",
          "type": "address"
        },
        {
          "internalType": "bool",
          "name": "authorized",
          "type": "bool"
        }
      ],
      "name": "setOperator",
      "outputs": [],
      "stateMutability": "nonpayable",
      "type": "function"
    },
    {
      "inputs": [
        {
          "internalType": "address",
          "name": "newOwner",
          "type": "address"
        }
      ],
      "name": "transferOwnership",
      "outputs": [],
      "stateMutability": "nonpayable",
      "type": "function"
    },
    {
      "inputs": [
        {
          "internalType": "bytes32",
          "name": "channelId",
          "type": "bytes32"
        },
        {
          "internalType": "bytes32",
          "name": "stateRoot",
          "type": "bytes32"
        },
        {
          "internalType": "uint256",
          "name": "nonce",
          "type": "uint256"
        }
      ],
      "name": "updateChannelState",
      "outputs": [],
      "stateMutability": "nonpayable",
      "type": "function"
    }
  ],
  "bytecode": "0x608060405262015180600555348015610016575f5ffd5b506040516111f13803806111f1833981016040819052610035916100fe565b806001600160a01b03811661006357604051631e4fbdf760e01b81525f600482015260240160405180910390fd5b61006c81610093565b506001600160a01b03165f908152600460205260409020805460ff1916600117905561012b565b600180546001600160a01b03191690556100ac816100af565b50565b5f80546001600160a01b038381166001600160a01b0319831681178455604051919092169283917f8be0079c531659141344cd1fd0a4f28419497f9722a3daafe3b4186f6b6457e09190a35050565b5f6020828403121561010e575f5ffd5b81516001600160a01b0381168114610124575f5ffd5b9392505050565b6110b9806101385f395ff3fe608060405234801561000f575f5ffd5b506004361061011c575f3560e01c8063831c2b82116100a9578063d01be3c41161006e578063d01be3c4146102d9578063e30c3978146102f9578063f2fde38b1461030a578063f3f480d91461031d578063fe745eae14610326575f5ffd5b8063831c2b821461024e5780638da5cb5b1461026e578063af06c87614610292578063bb4c5f56146102a5578063c64d2b2f146102c6575f5ffd5b8063558a7297116100ef578063558a7297146101925780635d475fdd146101a5578063715018a6146101b857806379ba5097146101c05780637a7ebd7b146101c8575f5ffd5b806313e7c9d81461012057806317ad8c1d146101575780634ab569a61461016a5780634c2ee09d1461017f575b5f5ffd5b61014261012e366004610df1565b60046020525f908152604090205460ff1681565b60405190151581526020015b60405180910390f35b610142610165366004610e0a565b610339565b61017d610178366004610e0a565b610386565b005b61017d61018d366004610e0a565b610443565b61017d6101a0366004610e21565b610577565b61017d6101b3366004610e0a565b6105dd565b61017d610620565b61017d610633565b6102386101d6366004610e0a565b600260208190525f9182526040909120805460018201549282015460038301546004840154600585015460068601546007870154600888015460099098015496986001600160a01b0390811698961696949593949293919260ff90911691908a565b60405161014e9a99989796959493929190610e8e565b61026161025c366004610e0a565b61067c565b60405161014e9190610ef0565b5f546001600160a01b03165b6040516001600160a01b03909116815260200161014e565b61017d6102a0366004610f89565b610741565b6102b86102b3366004610fb2565b610879565b60405190815260200161014e565b61017d6102d4366004610fb2565b6108a4565b6102ec6102e7366004610e0a565b6109e6565b60405161014e9190610fd2565b6001546001600160a01b031661027a565b61017d610318366004610df1565b610a45565b6102b860055481565b61017d610334366004611014565b610ab5565b5f8181526002602052604081206003600782015460ff16600481111561036157610361610e5a565b14801561037f5750600554816006015461037b919061105e565b4210155b9392505050565b5f81815260026020526040812090600782015460ff1660048111156103ad576103ad610e5a565b036103cb57604051630781f76560e21b815260040160405180910390fd5b6001600782015460ff1660048111156103e6576103e6610e5a565b146104045760405163f806e9d960e01b815260040160405180910390fd5b60078101805460ff19166002179055604051339083907f33ecb15ea9d14d3a61929c3eedf0d6202914231ea92178714436573a834f2a00905f90a35050565b335f9081526004602052604090205460ff1615801561046c57505f546001600160a01b03163314155b1561048a576040516326b9cdff60e11b815260040160405180910390fd5b5f81815260026020526040812090600782015460ff1660048111156104b1576104b1610e5a565b036104cf57604051630781f76560e21b815260040160405180910390fd5b6003600782015460ff1660048111156104ea576104ea610e5a565b146105085760405163f806e9d960e01b815260040160405180910390fd5b600554816006015461051a919061105e565b42101561053a5760405163048c969960e01b815260040160405180910390fd5b60078101805460ff1916600417905560405182907fceeab2eef998c17fe96f30f83fbf3c55fc5047f6e40c55a0cf72d236e9d2ba72905f90a25050565b61057f610cdb565b6001600160a01b0382165f81815260046020908152604091829020805460ff191685151590811790915591519182527f1a594081ae893ab78e67d9b9e843547318164322d32c65369d78a96172d9dc8f910160405180910390a25050565b6105e5610cdb565b60058190556040518181527f51df27ef8d4882ded82aa403cd74bcd8aaa267c36dc91cab36ed396f8dbfd2e19060200160405180910390a150565b610628610cdb565b6106315f610d07565b565b60015433906001600160a01b031681146106705760405163118cdaa760e01b81526001600160a01b03821660048201526024015b60405180910390fd5b61067981610d07565b50565b610684610d6a565b5f828152600260208181526040928390208351610140810185528154815260018201546001600160a01b03908116938201939093529281015490911692820192909252600382015460608201526004808301546080830152600583015460a0830152600683015460c0830152600783015491929160e084019160ff9091169081111561071257610712610e5a565b600481111561072357610723610e5a565b81526008820154602082015260099091015460409091015292915050565b335f9081526004602052604090205460ff1615801561076a57505f546001600160a01b03163314155b15610788576040516326b9cdff60e11b815260040160405180910390fd5b5f83815260026020526040812090600782015460ff1660048111156107af576107af610e5a565b036107cd57604051630781f76560e21b815260040160405180910390fd5b6001600782015460ff1660048111156107e8576107e8610e5a565b146108065760405163f806e9d960e01b815260040160405180910390fd5b8060090154821161082a57604051633ab3447f60e11b815260040160405180910390fd5b6008810183905560098101829055604080518481526020810184905285917f1047726b54d854271c2bd39da5c7ad639c4db0df3ea94895b30f3f5c1bd7b689910160405180910390a250505050565b6003602052815f5260405f208181548110610892575f80fd5b905f5260205f20015f91509150505481565b335f9081526004602052604090205460ff161580156108cd57505f546001600160a01b03163314155b156108eb576040516326b9cdff60e11b815260040160405180910390fd5b5f82815260026020526040812090600782015460ff16600481111561091257610912610e5a565b0361093057604051630781f76560e21b815260040160405180910390fd5b6001600782015460ff16600481111561094b5761094b610e5a565b1415801561097257506002600782015460ff16600481111561096f5761096f610e5a565b14155b156109905760405163f806e9d960e01b815260040160405180910390fd5b60078101805460ff191660031790556008810182905542600682015560405182815283907f3f7b83605d4c8cdba6ae41673001c6b81f1488990e37b0fd91b9a8e55c9899b39060200160405180910390a2505050565b5f81815260036020908152604091829020805483518184028101840190945280845260609392830182828015610a3957602002820191905f5260205f20905b815481526020019060010190808311610a25575b50505050509050919050565b610a4d610cdb565b600180546001600160a01b0383166001600160a01b03199091168117909155610a7d5f546001600160a01b031690565b6001600160a01b03167f38d16b8cac22d99fc7c124b9cd0de2d3fa1faef420bfe791d8c362d765e2270060405160405180910390a350565b335f9081526004602052604090205460ff16158015610ade57505f546001600160a01b03163314155b15610afc576040516326b9cdff60e11b815260040160405180910390fd5b5f8581526002602052604081206007015460ff166004811115610b2157610b21610e5a565b14610b3f57604051630ec0f14960e01b815260040160405180910390fd5b604051806101400160405280868152602001856001600160a01b03168152602001846001600160a01b031681526020018381526020018281526020014281526020015f815260200160016004811115610b9a57610b9a610e5a565b81525f602080830182905260409283018290528882526002808252918390208451815590840151600180830180546001600160a01b03199081166001600160a01b0394851617909155948601519383018054909516939091169290921790925560608301516003830155608083015160048084019190915560a0840151600584015560c0840151600684015560e08401516007840180549193909260ff19909216918490811115610c4d57610c4d610e5a565b02179055506101008201516008820155610120909101516009909101555f828152600360209081526040808320805460018101825590845291909220018690555182906001600160a01b0386169087907f97c1b6d4770f0dd9f0f7e1e4795f85665827530be75363fc0fcf63873294d9c290610ccc9086815260200190565b60405180910390a45050505050565b5f546001600160a01b031633146106315760405163118cdaa760e01b8152336004820152602401610667565b600180546001600160a01b0319169055610679815f80546001600160a01b038381166001600160a01b0319831681178455604051919092169283917f8be0079c531659141344cd1fd0a4f28419497f9722a3daafe3b4186f6b6457e09190a35050565b6040518061014001604052805f81526020015f6001600160a01b031681526020015f6001600160a01b031681526020015f81526020015f81526020015f81526020015f81526020015f6004811115610dc457610dc4610e5a565b81526020015f81526020015f81525090565b80356001600160a01b0381168114610dec575f5ffd5b919050565b5f60208284031215610e01575f5ffd5b61037f82610dd6565b5f60208284031215610e1a575f5ffd5b5035919050565b5f5f60408385031215610e32575f5ffd5b610e3b83610dd6565b915060208301358015158114610e4f575f5ffd5b809150509250929050565b634e487b7160e01b5f52602160045260245ffd5b60058110610e8a57634e487b7160e01b5f52602160045260245ffd5b9052565b8a81526001600160a01b038a8116602083015289166040820152606081018890526080810187905260a0810186905260c081018590526101408101610ed660e0830186610e6e565b610100820193909352610120015298975050505050505050565b81518152602080830151610140830191610f14908401826001600160a01b03169052565b506040830151610f2f60408401826001600160a01b03169052565b50606083015160608301526080830151608083015260a083015160a083015260c083015160c083015260e0830151610f6a60e0840182610e6e565b5061010083015161010083015261012083015161012083015292915050565b5f5f5f60608486031215610f9b575f5ffd5b505081359360208301359350604090920135919050565b5f5f60408385031215610fc3575f5ffd5b50508035926020909101359150565b602080825282518282018190525f918401906040840190835b81811015611009578351835260209384019390920191600101610feb565b509095945050505050565b5f5f5f5f5f60a08688031215611028575f5ffd5b8535945061103860208701610dd6565b935061104660408701610dd6565b94979396509394606081013594506080013592915050565b8082018082111561107d57634e487b7160e01b5f52601160045260245ffd5b9291505056fea264697066735822122059495102f364abd7e69d64a85748fd56ec400915cc985f99f7c73483948b512464736f6c634300081b0033",
  "linkReferences": {},
  "deployedLinkReferences": {},
  "immutableReferences": {},
  "inputSourceName": "project/contracts/core/ChannelRegistry.sol",
  "buildInfoId": "solc-0_8_27-60fa6de779ce94fe100d5bc4b7559ada7335ab62"
}