{"project/contracts/mocks/MockPriceReader.sol":{"MockPriceReader":{"abi":[{"inputs":[{"internalType":"address","name":"initialOwner","type":"address"}],"stateMutability":"nonpayable","type":"constructor"},{"inputs":[{"internalType":"address","name":"owner","type":"address"}],"name":"OwnableInvalidOwner","type":"error"},{"inputs":[{"internalType":"address","name":"account","type":"address"}],"name":"OwnableUnauthorizedAccount","type":"error"},{"inputs":[],"name":"PriceNotAvailable","type":"error"},{"inputs":[],"name":"UnsupportedSymbol","type":"error"},{"anonymous":false,"inputs":[{"indexed":true,"internalType":"address","name":"previousOwner","type":"address"},{"indexed":true,"internalType":"address","name":"newOwner","type":"address"}],"name":"OwnershipTransferStarted","type":"event"},{"anonymous":false,"inputs":[{"indexed":true,"internalType":"address","name":"previousOwner","type":"address"},{"indexed":true,"internalType":"address","name":"newOwner","type":"address"}],"name":"OwnershipTransferred","type":"event"},{"anonymous":false,"inputs":[{"indexed":true,"internalType":"string","name":"symbol","type":"string"},{"indexed":false,"internalType":"uint256","name":"price","type":"uint256"}],"name":"PriceUpdated","type":"event"},{"anonymous":false,"inputs":[{"indexed":true,"internalType":"string","name":"symbol","type":"string"},{"indexed":false,"internalType":"bool","name":"supported","type":"bool"}],"name":"SymbolSupported","type":"event"},{"inputs":[],"name":"acceptOwnership","outputs":[],"stateMutability":"nonpayable","type":"function"},{"inputs":[{"internalType":"string","name":"fromSymbol","type":"string"},{"internalType":"string","name":"toSymbol","type":"string"},{"internalType":"uint256","name":"amount","type":"uint256"}],"name":"convertAmount","outputs":[{"internalType":"uint256","name":"converted","type":"uint256"}],"stateMutability":"view","type":"function"},{"inputs":[{"internalType":"string","name":"symbol","type":"string"}],"name":"getPrice","outputs":[{"internalType":"uint256","name":"price","type":"uint256"},{"internalType":"uint256","name":"decimals","type":"uint256"},{"internalType":"uint256","name":"timestamp","type":"uint256"}],"stateMutability":"view","type":"function"},{"inputs":[{"internalType":"string","name":"baseSymbol","type":"string"},{"internalType":"string","name":"quoteSymbol","type":"string"}],"name":"getPriceRatio","outputs":[{"internalType":"uint256","name":"ratio","type":"uint256"},{"internalType":"uint256","name":"timestamp","type":"uint256"}],"stateMutability":"view","type":"function"},{"inputs":[{"internalType":"string","name":"","type":"string"}],"name":"isPriceFresh","outputs":[{"internalType":"bool","name":"","type":"bool"}],"stateMutability":"pure","type":"function"},{"inputs":[],"name":"owner","outputs":[{"internalType":"address","name":"","type":"address"}],"stateMutability":"view","type":"function"},{"inputs":[],"name":"pendingOwner","outputs":[{"internalType":"address","name":"","type":"address"}],"stateMutability":"view","type":"function"},{"inputs":[{"internalType":"string","name":"","type":"string"}],"name":"prices","outputs":[{"internalType":"uint256","name":"","type":"uint256"}],"stateMutability":"view","type":"function"},{"inputs":[],"name":"renounceOwnership","outputs":[],"stateMutability":"nonpayable","type":"function"},{"inputs":[{"internalType":"string","name":"symbol","type":"string"},{"internalType":"uint256","name":"price","type":"uint256"}],"name":"setPrice","outputs":[],"stateMutability":"nonpayable","type":"function"},{"inputs":[{"internalType":"string[]","name":"symbols","type":"string[]"},{"internalType":"uint256[]","name":"newPrices","type":"uint256[]"}],"name":"setPrices","outputs":[],"stateMutability":"nonpayable","type":"function"},{"inputs":[{"internalType":"string","name":"symbol","type":"string"},{"internalType":"bool","name":"supported","type":"bool"}],"name":"setSupportedSymbol","outputs":[],"stateMutability":"nonpayable","type":"function"},{"inputs":[{"internalType":"string","name":"","type":"string"}],"name":"supportedSymbols","outputs":[{"internalType":"bool","name":"","type":"bool"}],"stateMutability":"view","type":"function"},{"inputs":[{"internalType":"address","name":"newOwner","type":"address"}],"name":"transferOwnership","outputs":[],"stateMutability":"nonpayable","type":"function"}],"evm":{"bytecode":{"linkReferences":{},"object":"608060405234801561000f575f5ffd5b506040516110a83803806110a883398101604081905261002e916102c1565b806001600160a01b03811661005c57604051631e4fbdf760e01b81525f600482015260240160405180910390fd5b61006581610256565b50670de0b6b3a7640000600260405161008890635553444360e01b815260040190565b9081526040805191829003602001822092909255631554d11560e21b8082526002600480840182905284519384900360249081018520670de0b6b3a7640000908190556244414960e81b808752600380880186905288519788900360239081018920939093556242544360e81b8089528882018790528951988990038401892069098774738bc82220000090556208aa8960eb1b808a528983018890528a51998a900385018a2068878678326eac90000090556223262960e91b808b528a84018990528b519a8b900386018b206658d15e1762800090556205852560ec1b808c528b8501999099528b519a8b900386018b206706f05b59d3b200009055635553444360e01b8b528a88018490528b519a8b900387018b208054600160ff1991821681179092559a8c52978b018490528b519a8b90039096018a2080548a16881790559289528882018290528951988990038401892080548916871790558852878101819052885197889003830188208054881686179055908752868101819052875196879003820187208054871685179055918652858201829052865195869003810186208054861684179055928552848101529351928390030190912080549091169091179055506102ee565b600180546001600160a01b031916905561026f81610272565b50565b5f80546001600160a01b038381166001600160a01b0319831681178455604051919092169283917f8be0079c531659141344cd1fd0a4f28419497f9722a3daafe3b4186f6b6457e09190a35050565b5f602082840312156102d1575f5ffd5b81516001600160a01b03811681146102e7575f5ffd5b9392505050565b610dad806102fb5f395ff3fe608060405234801561000f575f5ffd5b50600436106100e5575f3560e01c806379ba509711610088578063dd671f5011610063578063dd671f5014610215578063e30c397814610229578063efe3bd121461023a578063f2fde38b14610262575f5ffd5b806379ba5097146101be5780638da5cb5b146101c6578063c3825f4b146101ea575f5ffd5b806327822749116100c3578063278227491461015457806331eb1d4414610167578063524f388914610188578063715018a6146101b6575f5ffd5b80631551b090146100e957806322e01192146100fe57806326f875b014610111575b5f5ffd5b6100fc6100f73660046109e2565b610275565b005b6100fc61010c366004610a34565b6102fb565b61013f61011f366004610a75565b805160208183018101805160038252928201919093012091525460ff1681565b60405190151581526020015b60405180910390f35b6100fc610162366004610b3a565b61039b565b61017a610175366004610c13565b610526565b60405190815260200161014b565b61019b610196366004610a75565b610634565b6040805193845260208401929092529082015260600161014b565b6100fc6106c4565b6100fc6106d7565b5f546001600160a01b03165b6040516001600160a01b03909116815260200161014b565b61017a6101f8366004610a75565b805160208183018101805160028252928201919093012091525481565b61013f610223366004610a75565b50600190565b6001546001600160a01b03166101d2565b61024d610248366004610c7f565b61071b565b6040805192835260208301919091520161014b565b6100fc610270366004610cd8565b610834565b61027d6108a4565b8060038360405161028e9190610d05565b908152604051908190036020018120805492151560ff19909316929092179091556102ba908390610d05565b6040519081900381208215158252907f8247287339e150ff9daaa98e72a67a311abe21d1735d99754d1f974aa3bd9969906020015b60405180910390a25050565b6103036108a4565b60016003836040516103159190610d05565b908152604051908190036020018120805492151560ff19909316929092179091558190600290610346908590610d05565b90815260405190819003602001812091909155610364908390610d05565b604051908190038120828252907f159e83f4712ba2552e68be9d848e49bf6dd35c24f19564ffd523b6549450a2f4906020016102ef565b6103a36108a4565b80518251146103eb5760405162461bcd60e51b815260206004820152600f60248201526e098cadccee8d040dad2e6dac2e8c6d608b1b60448201526064015b60405180910390fd5b5f5b8251811015610521576001600384838151811061040c5761040c610d1b565b60200260200101516040516104219190610d05565b908152604051908190036020019020805491151560ff19909216919091179055815182908290811061045557610455610d1b565b6020026020010151600284838151811061047157610471610d1b565b60200260200101516040516104869190610d05565b9081526020016040518091039020819055508281815181106104aa576104aa610d1b565b60200260200101516040516104bf9190610d05565b60405180910390207f159e83f4712ba2552e68be9d848e49bf6dd35c24f19564ffd523b6549450a2f48383815181106104fa576104fa610d1b565b602002602001015160405161051191815260200190565b60405180910390a26001016103ed565b505050565b5f6003846040516105379190610d05565b9081526040519081900360200190205460ff1661056757604051639a593f7f60e01b815260040160405180910390fd5b6003836040516105779190610d05565b9081526040519081900360200190205460ff166105a757604051639a593f7f60e01b815260040160405180910390fd5b5f6002856040516105b89190610d05565b90815260200160405180910390205490505f6002856040516105da9190610d05565b9081526020016040518091039020549050815f14806105f7575080155b156106155760405163579a480160e01b815260040160405180910390fd5b806106208386610d2f565b61062a9190610d58565b9695505050505050565b5f5f5f6003846040516106479190610d05565b9081526040519081900360200190205460ff1661067757604051639a593f7f60e01b815260040160405180910390fd5b6002846040516106879190610d05565b9081526020016040518091039020549250825f036106b85760405163579a480160e01b815260040160405180910390fd5b50909260129250429150565b6106cc6108a4565b6106d55f6108d0565b565b60015433906001600160a01b0316811461070f5760405163118cdaa760e01b81526001600160a01b03821660048201526024016103e2565b610718816108d0565b50565b5f5f60038460405161072d9190610d05565b9081526040519081900360200190205460ff1661075d57604051639a593f7f60e01b815260040160405180910390fd5b60038360405161076d9190610d05565b9081526040519081900360200190205460ff1661079d57604051639a593f7f60e01b815260040160405180910390fd5b5f6002856040516107ae9190610d05565b90815260200160405180910390205490505f6002856040516107d09190610d05565b9081526020016040518091039020549050815f14806107ed575080155b1561080b5760405163579a480160e01b815260040160405180910390fd5b8061081e83670de0b6b3a7640000610d2f565b6108289190610d58565b96429650945050505050565b61083c6108a4565b600180546001600160a01b0383166001600160a01b0319909116811790915561086c5f546001600160a01b031690565b6001600160a01b03167f38d16b8cac22d99fc7c124b9cd0de2d3fa1faef420bfe791d8c362d765e2270060405160405180910390a350565b5f546001600160a01b031633146106d55760405163118cdaa760e01b81523360048201526024016103e2565b600180546001600160a01b0319169055610718815f80546001600160a01b038381166001600160a01b0319831681178455604051919092169283917f8be0079c531659141344cd1fd0a4f28419497f9722a3daafe3b4186f6b6457e09190a35050565b634e487b7160e01b5f52604160045260245ffd5b604051601f8201601f191681016001600160401b038111828210171561096f5761096f610933565b604052919050565b5f82601f830112610986575f5ffd5b81356001600160401b0381111561099f5761099f610933565b6109b2601f8201601f1916602001610947565b8181528460208386010111156109c6575f5ffd5b816020850160208301375f918101602001919091529392505050565b5f5f604083850312156109f3575f5ffd5b82356001600160401b03811115610a08575f5ffd5b610a1485828601610977565b92505060208301358015158114610a29575f5ffd5b809150509250929050565b5f5f60408385031215610a45575f5ffd5b82356001600160401b03811115610a5a575f5ffd5b610a6685828601610977565b95602094909401359450505050565b5f60208284031215610a85575f5ffd5b81356001600160401b03811115610a9a575f5ffd5b610aa684828501610977565b949350505050565b5f6001600160401b03821115610ac657610ac6610933565b5060051b60200190565b5f82601f830112610adf575f5ffd5b8135610af2610aed82610aae565b610947565b8082825260208201915060208360051b860101925085831115610b13575f5ffd5b602085015b83811015610b30578035835260209283019201610b18565b5095945050505050565b5f5f60408385031215610b4b575f5ffd5b82356001600160401b03811115610b60575f5ffd5b8301601f81018513610b70575f5ffd5b8035610b7e610aed82610aae565b8082825260208201915060208360051b850101925087831115610b9f575f5ffd5b602084015b83811015610bdf5780356001600160401b03811115610bc1575f5ffd5b610bd08a602083890101610977565b84525060209283019201610ba4565b50945050505060208301356001600160401b03811115610bfd575f5ffd5b610c0985828601610ad0565b9150509250929050565b5f5f5f60608486031215610c25575f5ffd5b83356001600160401b03811115610c3a575f5ffd5b610c4686828701610977565b93505060208401356001600160401b03811115610c61575f5ffd5b610c6d86828701610977565b93969395505050506040919091013590565b5f5f60408385031215610c90575f5ffd5b82356001600160401b03811115610ca5575f5ffd5b610cb185828601610977565b92505060208301356001600160401b03811115610ccc575f5ffd5b610c0985828601610977565b5f60208284031215610ce8575f5ffd5b81356001600160a01b0381168114610cfe575f5ffd5b9392505050565b5f82518060208501845e5f920191825250919050565b634e487b7160e01b5f52603260045260245ffd5b8082028115828204841417610d5257634e487b7160e01b5f52601160045260245ffd5b92915050565b5f82610d7257634e487b7160e01b5f52601260045260245ffd5b50049056fea26469706673582212209a32aef45bbb179b47b2eeabf0a254117c3171fab7bc6ac19e2eb10032d0651564736f6c634300081b0033","opcodes":"PUSH1 0x80 PUSH1 0x40 MSTORE CALLVALUE DUP1 ISZERO PUSH2 0xF JUMPI PUSH0 PUSH0 REVERT JUMPDEST POP PUSH1 0x40 MLOAD PUSH2 0x10A8 CODESIZE SUB DUP1 PUSH2 0x10A8 DUP4 CODECOPY DUP2 ADD PUSH1 0x40 DUP2 SWAP1 MSTORE PUSH2 0x2E SWAP2 PUSH2 0x2C1 JUMP JUMPDEST DUP1 PUSH1 0x1 PUSH1 0x1 PUSH1 0xA0 SHL SUB DUP2 AND PUSH2 0x5C JUMPI PUSH1 0x40 MLOAD PUSH4 0x1E4FBDF7 PUSH1 0xE0 SHL DUP2 MSTORE PUSH0 PUSH1 0x4 DUP3 ADD MSTORE PUSH1 0x24 ADD PUSH1 0x40 MLOAD DUP1 SWAP2 SUB SWAP1 REVERT JUMPDEST PUSH2 0x65 DUP2 PUSH2 0x256 JUMP JUMPDEST POP PUSH8 0xDE0B6B3A7640000 PUSH1 0x2 PUSH1 0x40 MLOAD PUSH2 0x88 SWAP1 PUSH4 0x55534443 PUSH1 0xE0 SHL DUP2 MSTORE PUSH1 0x4 ADD SWAP1 JUMP JUMPDEST SWAP1 DUP2 MSTORE PUSH1 0x40 DUP1 MLOAD SWAP2 DUP3 SWAP1 SUB PUSH1 0x20 ADD DUP3 KECCAK256 SWAP3 SWAP1 SWAP3 SSTORE PUSH4 0x1554D115 PUSH1 0xE2 SHL DUP1 DUP3 MSTORE PUSH1 0x2 PUSH1 0x4 DUP1 DUP5 ADD DUP3 SWAP1 MSTORE DUP5 MLOAD SWAP4 DUP5 SWAP1 SUB PUSH1 0x24 SWAP1 DUP2 ADD DUP6 KECCAK256 PUSH8 0xDE0B6B3A7640000 SWAP1 DUP2 SWAP1 SSTORE PUSH3 0x444149 PUSH1 0xE8 SHL DUP1 DUP8 MSTORE PUSH1 0x3 DUP1 DUP9 ADD DUP7 SWAP1 MSTORE DUP9 MLOAD SWAP8 DUP9 SWAP1 SUB PUSH1 0x23 SWAP1 DUP2 ADD DUP10 KECCAK256 SWAP4 SWAP1 SWAP4 SSTORE PUSH3 0x425443 PUSH1 0xE8 SHL DUP1 DUP10 MSTORE DUP9 DUP3 ADD DUP8 SWAP1 MSTORE DUP10 MLOAD SWAP9 DUP10 SWAP1 SUB DUP5 ADD DUP10 KECCAK256 PUSH10 0x98774738BC822200000 SWAP1 SSTORE PUSH3 0x8AA89 PUSH1 0xEB SHL DUP1 DUP11 MSTORE DUP10 DUP4 ADD DUP9 SWAP1 MSTORE DUP11 MLOAD SWAP10 DUP11 SWAP1 SUB DUP6 ADD DUP11 KECCAK256 PUSH9 0x878678326EAC900000 SWAP1 SSTORE PUSH3 0x232629 PUSH1 0xE9 SHL DUP1 DUP12 MSTORE DUP11 DUP5 ADD DUP10 SWAP1 MSTORE DUP12 MLOAD SWAP11 DUP12 SWAP1 SUB DUP7 ADD DUP12 KECCAK256 PUSH7 0x58D15E17628000 SWAP1 SSTORE PUSH3 0x58525 PUSH1 0xEC SHL DUP1 DUP13 MSTORE DUP12 DUP6 ADD SWAP10 SWAP1 SWAP10 MSTORE DUP12 MLOAD SWAP11 DUP12 SWAP1 SUB DUP7 ADD DUP12 KECCAK256 PUSH8 0x6F05B59D3B20000 SWAP1 SSTORE PUSH4 0x55534443 PUSH1 0xE0 SHL DUP12 MSTORE DUP11 DUP9 ADD DUP5 SWAP1 MSTORE DUP12 MLOAD SWAP11 DUP12 SWAP1 SUB DUP8 ADD DUP12 KECCAK256 DUP1 SLOAD PUSH1 0x1 PUSH1 0xFF NOT SWAP2 DUP3 AND DUP2 OR SWAP1 SWAP3 SSTORE SWAP11 DUP13 MSTORE SWAP8 DUP12 ADD DUP5 SWAP1 MSTORE DUP12 MLOAD SWAP11 DUP12 SWAP1 SUB SWAP1 SWAP7 ADD DUP11 KECCAK256 DUP1 SLOAD DUP11 AND DUP9 OR SWAP1 SSTORE SWAP3 DUP10 MSTORE DUP9 DUP3 ADD DUP3 SWAP1 MSTORE DUP10 MLOAD SWAP9 DUP10 SWAP1 SUB DUP5 ADD DUP10 KECCAK256 DUP1 SLOAD DUP10 AND DUP8 OR SWAP1 SSTORE DUP9 MSTORE DUP8 DUP2 ADD DUP2 SWAP1 MSTORE DUP9 MLOAD SWAP8 DUP9 SWAP1 SUB DUP4 ADD DUP9 KECCAK256 DUP1 SLOAD DUP9 AND DUP7 OR SWAP1 SSTORE SWAP1 DUP8 MSTORE DUP7 DUP2 ADD DUP2 SWAP1 MSTORE DUP8 MLOAD SWAP7 DUP8 SWAP1 SUB DUP3 ADD DUP8 KECCAK256 DUP1 SLOAD DUP8 AND DUP6 OR SWAP1 SSTORE SWAP2 DUP7 MSTORE DUP6 DUP3 ADD DUP3 SWAP1 MSTORE DUP7 MLOAD SWAP6 DUP7 SWAP1 SUB DUP2 ADD DUP7 KECCAK256 DUP1 SLOAD DUP7 AND DUP5 OR SWAP1 SSTORE SWAP3 DUP6 MSTORE DUP5 DUP2 ADD MSTORE SWAP4 MLOAD SWAP3 DUP4 SWAP1 SUB ADD SWAP1 SWAP2 KECCAK256 DUP1 SLOAD SWAP1 SWAP2 AND SWAP1 SWAP2 OR SWAP1 SSTORE POP PUSH2 0x2EE JUMP JUMPDEST PUSH1 0x1 DUP1 SLOAD PUSH1 0x1 PUSH1 0x1 PUSH1 0xA0 SHL SUB NOT AND SWAP1 SSTORE PUSH2 0x26F DUP2 PUSH2 0x272 JUMP JUMPDEST POP JUMP JUMPDEST PUSH0 DUP1 SLOAD PUSH1 0x1 PUSH1 0x1 PUSH1 0xA0 SHL SUB DUP4 DUP2 AND PUSH1 0x1 PUSH1 0x1 PUSH1 0xA0 SHL SUB NOT DUP4 AND DUP2 OR DUP5 SSTORE PUSH1 0x40 MLOAD SWAP2 SWAP1 SWAP3 AND SWAP3 DUP4 SWAP2 PUSH32 0x8BE0079C531659141344CD1FD0A4F28419497F9722A3DAAFE3B4186F6B6457E0 SWAP2 SWAP1 LOG3 POP POP JUMP JUMPDEST PUSH0 PUSH1 0x20 DUP3 DUP5 SUB SLT ISZERO PUSH2 0x2D1 JUMPI PUSH0 PUSH0 REVERT JUMPDEST DUP2 MLOAD PUSH1 0x1 PUSH1 0x1 PUSH1 0xA0 SHL SUB DUP2 AND DUP2 EQ PUSH2 0x2E7 JUMPI PUSH0 PUSH0 REVERT JUMPDEST SWAP4 SWAP3 POP POP POP JUMP JUMPDEST PUSH2 0xDAD DUP1 PUSH2 0x2FB PUSH0 CODECOPY PUSH0 RETURN INVALID PUSH1 0x80 PUSH1 0x40 MSTORE CALLVALUE DUP1 ISZERO PUSH2 0xF JUMPI PUSH0 PUSH0 REVERT JUMPDEST POP PUSH1 0x4 CALLDATASIZE LT PUSH2 0xE5 JUMPI PUSH0 CALLDATALOAD PUSH1 0xE0 SHR DUP1 PUSH4 0x79BA5097 GT PUSH2 0x88 JUMPI DUP1 PUSH4 0xDD671F50 GT PUSH2 0x63 JUMPI DUP1 PUSH4 0xDD671F50 EQ PUSH2 0x215 JUMPI DUP1 PUSH4 0xE30C3978 EQ PUSH2 0x229 JUMPI DUP1 PUSH4 0xEFE3BD12 EQ PUSH2 0x23A JUMPI DUP1 PUSH4 0xF2FDE38B EQ PUSH2 0x262 JUMPI PUSH0 PUSH0 REVERT JUMPDEST DUP1 PUSH4 0x79BA5097 EQ PUSH2 0x1BE JUMPI DUP1 PUSH4 0x8DA5CB5B EQ PUSH2 0x1C6 JUMPI DUP1 PUSH4 0xC3825F4B EQ PUSH2 0x1EA JUMPI PUSH0 PUSH0 REVERT JUMPDEST DUP1 PUSH4 0x27822749 GT PUSH2 0xC3 JUMPI DUP1 PUSH4 0x27822749 EQ PUSH2 0x154 JUMPI DUP1 PUSH4 0x31EB1D44 EQ PUSH2 0x167 JUMPI DUP1 PUSH4 0x524F3889 EQ PUSH2 0x188 JUMPI DUP1 PUSH4 0x715018A6 EQ PUSH2 0x1B6 JUMPI PUSH0 PUSH0 REVERT JUMPDEST DUP1 PUSH4 0x1551B090 EQ PUSH2 0xE9 JUMPI DUP1 PUSH4 0x22E01192 EQ PUSH2 0xFE JUMPI DUP1 PUSH4 0x26F875B0 EQ PUSH2 0x111 JUMPI JUMPDEST PUSH0 PUSH0 REVERT JUMPDEST PUSH2 0xFC PUSH2 0xF7 CALLDATASIZE PUSH1 0x4 PUSH2 0x9E2 JUMP JUMPDEST PUSH2 0x275 JUMP JUMPDEST STOP JUMPDEST PUSH2 0xFC PUSH2 0x10C CALLDATASIZE PUSH1 0x4 PUSH2 0xA34 JUMP JUMPDEST PUSH2 0x2FB JUMP JUMPDEST PUSH2 0x13F PUSH2 0x11F CALLDATASIZE PUSH1 0x4 PUSH2 0xA75 JUMP JUMPDEST DUP1 MLOAD PUSH1 0x20 DUP2 DUP4 ADD DUP2 ADD DUP1 MLOAD PUSH1 0x3 DUP3 MSTORE SWAP3 DUP3 ADD SWAP2 SWAP1 SWAP4 ADD KECCAK256 SWAP2 MSTORE SLOAD PUSH1 0xFF AND DUP2 JUMP JUMPDEST PUSH1 0x40 MLOAD SWAP1 ISZERO ISZERO DUP2 MSTORE PUSH1 0x20 ADD JUMPDEST PUSH1 0x40 MLOAD DUP1 SWAP2 SUB SWAP1 RETURN JUMPDEST PUSH2 0xFC PUSH2 0x162 CALLDATASIZE PUSH1 0x4 PUSH2 0xB3A JUMP JUMPDEST PUSH2 0x39B JUMP JUMPDEST PUSH2 0x17A PUSH2 0x175 CALLDATASIZE PUSH1 0x4 PUSH2 0xC13 JUMP JUMPDEST PUSH2 0x526 JUMP JUMPDEST PUSH1 0x40 MLOAD SWAP1 DUP2 MSTORE PUSH1 0x20 ADD PUSH2 0x14B JUMP JUMPDEST PUSH2 0x19B PUSH2 0x196 CALLDATASIZE PUSH1 0x4 PUSH2 0xA75 JUMP JUMPDEST PUSH2 0x634 JUMP JUMPDEST PUSH1 0x40 DUP1 MLOAD SWAP4 DUP5 MSTORE PUSH1 0x20 DUP5 ADD SWAP3 SWAP1 SWAP3 MSTORE SWAP1 DUP3 ADD MSTORE PUSH1 0x60 ADD PUSH2 0x14B JUMP JUMPDEST PUSH2 0xFC PUSH2 0x6C4 JUMP JUMPDEST PUSH2 0xFC PUSH2 0x6D7 JUMP JUMPDEST PUSH0 SLOAD PUSH1 0x1 PUSH1 0x1 PUSH1 0xA0 SHL SUB AND JUMPDEST PUSH1 0x40 MLOAD PUSH1 0x1 PUSH1 0x1 PUSH1 0xA0 SHL SUB SWAP1 SWAP2 AND DUP2 MSTORE PUSH1 0x20 ADD PUSH2 0x14B JUMP JUMPDEST PUSH2 0x17A PUSH2 0x1F8 CALLDATASIZE PUSH1 0x4 PUSH2 0xA75 JUMP JUMPDEST DUP1 MLOAD PUSH1 0x20 DUP2 DUP4 ADD DUP2 ADD DUP1 MLOAD PUSH1 0x2 DUP3 MSTORE SWAP3 DUP3 ADD SWAP2 SWAP1 SWAP4 ADD KECCAK256 SWAP2 MSTORE SLOAD DUP2 JUMP JUMPDEST PUSH2 0x13F PUSH2 0x223 CALLDATASIZE PUSH1 0x4 PUSH2 0xA75 JUMP JUMPDEST POP PUSH1 0x1 SWAP1 JUMP JUMPDEST PUSH1 0x1 SLOAD PUSH1 0x1 PUSH1 0x1 PUSH1 0xA0 SHL SUB AND PUSH2 0x1D2 JUMP JUMPDEST PUSH2 0x24D PUSH2 0x248 CALLDATASIZE PUSH1 0x4 PUSH2 0xC7F JUMP JUMPDEST PUSH2 0x71B JUMP JUMPDEST PUSH1 0x40 DUP1 MLOAD SWAP3 DUP4 MSTORE PUSH1 0x20 DUP4 ADD SWAP2 SWAP1 SWAP2 MSTORE ADD PUSH2 0x14B JUMP JUMPDEST PUSH2 0xFC PUSH2 0x270 CALLDATASIZE PUSH1 0x4 PUSH2 0xCD8 JUMP JUMPDEST PUSH2 0x834 JUMP JUMPDEST PUSH2 0x27D PUSH2 0x8A4 JUMP JUMPDEST DUP1 PUSH1 0x3 DUP4 PUSH1 0x40 MLOAD PUSH2 0x28E SWAP2 SWAP1 PUSH2 0xD05 JUMP JUMPDEST SWAP1 DUP2 MSTORE PUSH1 0x40 MLOAD SWAP1 DUP2 SWAP1 SUB PUSH1 0x20 ADD DUP2 KECCAK256 DUP1 SLOAD SWAP3 ISZERO ISZERO PUSH1 0xFF NOT SWAP1 SWAP4 AND SWAP3 SWAP1 SWAP3 OR SWAP1 SWAP2 SSTORE PUSH2 0x2BA SWAP1 DUP4 SWAP1 PUSH2 0xD05 JUMP JUMPDEST PUSH1 0x40 MLOAD SWAP1 DUP2 SWAP1 SUB DUP2 KECCAK256 DUP3 ISZERO ISZERO DUP3 MSTORE SWAP1 PUSH32 0x8247287339E150FF9DAAA98E72A67A311ABE21D1735D99754D1F974AA3BD9969 SWAP1 PUSH1 0x20 ADD JUMPDEST PUSH1 0x40 MLOAD DUP1 SWAP2 SUB SWAP1 LOG2 POP POP JUMP JUMPDEST PUSH2 0x303 PUSH2 0x8A4 JUMP JUMPDEST PUSH1 0x1 PUSH1 0x3 DUP4 PUSH1 0x40 MLOAD PUSH2 0x315 SWAP2 SWAP1 PUSH2 0xD05 JUMP JUMPDEST SWAP1 DUP2 MSTORE PUSH1 0x40 MLOAD SWAP1 DUP2 SWAP1 SUB PUSH1 0x20 ADD DUP2 KECCAK256 DUP1 SLOAD SWAP3 ISZERO ISZERO PUSH1 0xFF NOT SWAP1 SWAP4 AND SWAP3 SWAP1 SWAP3 OR SWAP1 SWAP2 SSTORE DUP2 SWAP1 PUSH1 0x2 SWAP1 PUSH2 0x346 SWAP1 DUP6 SWAP1 PUSH2 0xD05 JUMP JUMPDEST SWAP1 DUP2 MSTORE PUSH1 0x40 MLOAD SWAP1 DUP2 SWAP1 SUB PUSH1 0x20 ADD DUP2 KECCAK256 SWAP2 SWAP1 SWAP2 SSTORE PUSH2 0x364 SWAP1 DUP4 SWAP1 PUSH2 0xD05 JUMP JUMPDEST PUSH1 0x40 MLOAD SWAP1 DUP2 SWAP1 SUB DUP2 KECCAK256 DUP3 DUP3 MSTORE SWAP1 PUSH32 0x159E83F4712BA2552E68BE9D848E49BF6DD35C24F19564FFD523B6549450A2F4 SWAP1 PUSH1 0x20 ADD PUSH2 0x2EF JUMP JUMPDEST PUSH2 0x3A3 PUSH2 0x8A4 JUMP JUMPDEST DUP1 MLOAD DUP3 MLOAD EQ PUSH2 0x3EB JUMPI PUSH1 0x40 MLOAD PUSH3 0x461BCD PUSH1 0xE5 SHL DUP2 MSTORE PUSH1 0x20 PUSH1 0x4 DUP3 ADD MSTORE PUSH1 0xF PUSH1 0x24 DUP3 ADD MSTORE PUSH15 0x98CADCCEE8D040DAD2E6DAC2E8C6D PUSH1 0x8B SHL PUSH1 0x44 DUP3 ADD MSTORE PUSH1 0x64 ADD JUMPDEST PUSH1 0x40 MLOAD DUP1 SWAP2 SUB SWAP1 REVERT JUMPDEST PUSH0 JUMPDEST DUP3 MLOAD DUP2 LT ISZERO PUSH2 0x521 JUMPI PUSH1 0x1 PUSH1 0x3 DUP5 DUP4 DUP2 MLOAD DUP2 LT PUSH2 0x40C JUMPI PUSH2 0x40C PUSH2 0xD1B JUMP JUMPDEST PUSH1 0x20 MUL PUSH1 0x20 ADD ADD MLOAD PUSH1 0x40 MLOAD PUSH2 0x421 SWAP2 SWAP1 PUSH2 0xD05 JUMP JUMPDEST SWAP1 DUP2 MSTORE PUSH1 0x40 MLOAD SWAP1 DUP2 SWAP1 SUB PUSH1 0x20 ADD SWAP1 KECCAK256 DUP1 SLOAD SWAP2 ISZERO ISZERO PUSH1 0xFF NOT SWAP1 SWAP3 AND SWAP2 SWAP1 SWAP2 OR SWAP1 SSTORE DUP2 MLOAD DUP3 SWAP1 DUP3 SWAP1 DUP2 LT PUSH2 0x455 JUMPI PUSH2 0x455 PUSH2 0xD1B JUMP JUMPDEST PUSH1 0x20 MUL PUSH1 0x20 ADD ADD MLOAD PUSH1 0x2 DUP5 DUP4 DUP2 MLOAD DUP2 LT PUSH2 0x471 JUMPI PUSH2 0x471 PUSH2 0xD1B JUMP JUMPDEST PUSH1 0x20 MUL PUSH1 0x20 ADD ADD MLOAD PUSH1 0x40 MLOAD PUSH2 0x486 SWAP2 SWAP1 PUSH2 0xD05 JUMP JUMPDEST SWAP1 DUP2 MSTORE PUSH1 0x20 ADD PUSH1 0x40 MLOAD DUP1 SWAP2 SUB SWAP1 KECCAK256 DUP2 SWAP1 SSTORE POP DUP3 DUP2 DUP2 MLOAD DUP2 LT PUSH2 0x4AA JUMPI PUSH2 0x4AA PUSH2 0xD1B JUMP JUMPDEST PUSH1 0x20 MUL PUSH1 0x20 ADD ADD MLOAD PUSH1 0x40 MLOAD PUSH2 0x4BF SWAP2 SWAP1 PUSH2 0xD05 JUMP JUMPDEST PUSH1 0x40 MLOAD DUP1 SWAP2 SUB SWAP1 KECCAK256 PUSH32 0x159E83F4712BA2552E68BE9D848E49BF6DD35C24F19564FFD523B6549450A2F4 DUP4 DUP4 DUP2 MLOAD DUP2 LT PUSH2 0x4FA JUMPI PUSH2 0x4FA PUSH2 0xD1B JUMP JUMPDEST PUSH1 0x20 MUL PUSH1 0x20 ADD ADD MLOAD PUSH1 0x40 MLOAD PUSH2 0x511 SWAP2 DUP2 MSTORE PUSH1 0x20 ADD SWAP1 JUMP JUMPDEST PUSH1 0x40 MLOAD DUP1 SWAP2 SUB SWAP1 LOG2 PUSH1 0x1 ADD PUSH2 0x3ED JUMP JUMPDEST POP POP POP JUMP JUMPDEST PUSH0 PUSH1 0x3 DUP5 PUSH1 0x40 MLOAD PUSH2 0x537 SWAP2 SWAP1 PUSH2 0xD05 JUMP JUMPDEST SWAP1 DUP2 MSTORE PUSH1 0x40 MLOAD SWAP1 DUP2 SWAP1 SUB PUSH1 0x20 ADD SWAP1 KECCAK256 SLOAD PUSH1 0xFF AND PUSH2 0x567 JUMPI PUSH1 0x40 MLOAD PUSH4 0x9A593F7F PUSH1 0xE0 SHL DUP2 MSTORE PUSH1 0x4 ADD PUSH1 0x40 MLOAD DUP1 SWAP2 SUB SWAP1 REVERT JUMPDEST PUSH1 0x3 DUP4 PUSH1 0x40 MLOAD PUSH2 0x577 SWAP2 SWAP1 PUSH2 0xD05 JUMP JUMPDEST SWAP1 DUP2 MSTORE PUSH1 0x40 MLOAD SWAP1 DUP2 SWAP1 SUB PUSH1 0x20 ADD SWAP1 KECCAK256 SLOAD PUSH1 0xFF AND PUSH2 0x5A7 JUMPI PUSH1 0x40 MLOAD PUSH4 0x9A593F7F PUSH1 0xE0 SHL DUP2 MSTORE PUSH1 0x4 ADD PUSH1 0x40 MLOAD DUP1 SWAP2 SUB SWAP1 REVERT JUMPDEST PUSH0 PUSH1 0x2 DUP6 PUSH1 0x40 MLOAD PUSH2 0x5B8 SWAP2 SWAP1 PUSH2 0xD05 JUMP JUMPDEST SWAP1 DUP2 MSTORE PUSH1 0x20 ADD PUSH1 0x40 MLOAD DUP1 SWAP2 SUB SWAP1 KECCAK256 SLOAD SWAP1 POP PUSH0 PUSH1 0x2 DUP6 PUSH1 0x40 MLOAD PUSH2 0x5DA SWAP2 SWAP1 PUSH2 0xD05 JUMP JUMPDEST SWAP1 DUP2 MSTORE PUSH1 0x20 ADD PUSH1 0x40 MLOAD DUP1 SWAP2 SUB SWAP1 KECCAK256 SLOAD SWAP1 POP DUP2 PUSH0 EQ DUP1 PUSH2 0x5F7 JUMPI POP DUP1 ISZERO JUMPDEST ISZERO PUSH2 0x615 JUMPI PUSH1 0x40 MLOAD PUSH4 0x579A4801 PUSH1 0xE0 SHL DUP2 MSTORE PUSH1 0x4 ADD PUSH1 0x40 MLOAD DUP1 SWAP2 SUB SWAP1 REVERT JUMPDEST DUP1 PUSH2 0x620 DUP4 DUP7 PUSH2 0xD2F JUMP JUMPDEST PUSH2 0x62A SWAP2 SWAP1 PUSH2 0xD58 JUMP JUMPDEST SWAP7 SWAP6 POP POP POP POP POP POP JUMP JUMPDEST PUSH0 PUSH0 PUSH0 PUSH1 0x3 DUP5 PUSH1 0x40 MLOAD PUSH2 0x647 SWAP2 SWAP1 PUSH2 0xD05 JUMP JUMPDEST SWAP1 DUP2 MSTORE PUSH1 0x40 MLOAD SWAP1 DUP2 SWAP1 SUB PUSH1 0x20 ADD SWAP1 KECCAK256 SLOAD PUSH1 0xFF AND PUSH2 0x677 JUMPI PUSH1 0x40 MLOAD PUSH4 0x9A593F7F PUSH1 0xE0 SHL DUP2 MSTORE PUSH1 0x4 ADD PUSH1 0x40 MLOAD DUP1 SWAP2 SUB SWAP1 REVERT JUMPDEST PUSH1 0x2 DUP5 PUSH1 0x40 MLOAD PUSH2 0x687 SWAP2 SWAP1 PUSH2 0xD05 JUMP JUMPDEST SWAP1 DUP2 MSTORE PUSH1 0x20 ADD PUSH1 0x40 MLOAD DUP1 SWAP2 SUB SWAP1 KECCAK256 SLOAD SWAP3 POP DUP3 PUSH0 SUB PUSH2 0x6B8 JUMPI PUSH1 0x40 MLOAD PUSH4 0x579A4801 PUSH1 0xE0 SHL DUP2 MSTORE PUSH1 0x4 ADD PUSH1 0x40 MLOAD DUP1 SWAP2 SUB SWAP1 REVERT JUMPDEST POP SWAP1 SWAP3 PUSH1 0x12 SWAP3 POP TIMESTAMP SWAP2 POP JUMP JUMPDEST PUSH2 0x6CC PUSH2 0x8A4 JUMP JUMPDEST PUSH2 0x6D5 PUSH0 PUSH2 0x8D0 JUMP JUMPDEST JUMP JUMPDEST PUSH1 0x1 SLOAD CALLER SWAP1 PUSH1 0x1 PUSH1 0x1 PUSH1 0xA0 SHL SUB AND DUP2 EQ PUSH2 0x70F JUMPI PUSH1 0x40 MLOAD PUSH4 0x118CDAA7 PUSH1 0xE0 SHL DUP2 MSTORE PUSH1 0x1 PUSH1 0x1 PUSH1 0xA0 SHL SUB DUP3 AND PUSH1 0x4 DUP3 ADD MSTORE PUSH1 0x24 ADD PUSH2 0x3E2 JUMP JUMPDEST PUSH2 0x718 DUP2 PUSH2 0x8D0 JUMP JUMPDEST POP JUMP JUMPDEST PUSH0 PUSH0 PUSH1 0x3 DUP5 PUSH1 0x40 MLOAD PUSH2 0x72D SWAP2 SWAP1 PUSH2 0xD05 JUMP JUMPDEST SWAP1 DUP2 MSTORE PUSH1 0x40 MLOAD SWAP1 DUP2 SWAP1 SUB PUSH1 0x20 ADD SWAP1 KECCAK256 SLOAD PUSH1 0xFF AND PUSH2 0x75D JUMPI PUSH1 0x40 MLOAD PUSH4 0x9A593F7F PUSH1 0xE0 SHL DUP2 MSTORE PUSH1 0x4 ADD PUSH1 0x40 MLOAD DUP1 SWAP2 SUB SWAP1 REVERT JUMPDEST PUSH1 0x3 DUP4 PUSH1 0x40 MLOAD PUSH2 0x76D SWAP2 SWAP1 PUSH2 0xD05 JUMP JUMPDEST SWAP1 DUP2 MSTORE PUSH1 0x40 MLOAD SWAP1 DUP2 SWAP1 SUB PUSH1 0x20 ADD SWAP1 KECCAK256 SLOAD PUSH1 0xFF AND PUSH2 0x79D JUMPI PUSH1 0x40 MLOAD PUSH4 0x9A593F7F PUSH1 0xE0 SHL DUP2 MSTORE PUSH1 0x4 ADD PUSH1 0x40 MLOAD DUP1 SWAP2 SUB SWAP1 REVERT JUMPDEST PUSH0 PUSH1 0x2 DUP6 PUSH1 0x40 MLOAD PUSH2 0x7AE SWAP2 SWAP1 PUSH2 0xD05 JUMP JUMPDEST SWAP1 DUP2 MSTORE PUSH1 0x20 ADD PUSH1 0x40 MLOAD DUP1 SWAP2 SUB SWAP1 KECCAK256 SLOAD SWAP1 POP PUSH0 PUSH1 0x2 DUP6 PUSH1 0x40 MLOAD PUSH2 0x7D0 SWAP2 SWAP1 PUSH2 0xD05 JUMP JUMPDEST SWAP1 DUP2 MSTORE PUSH1 0x20 ADD PUSH1 0x40 MLOAD DUP1 SWAP2 SUB SWAP1 KECCAK256 SLOAD SWAP1 POP DUP2 PUSH0 EQ DUP1 PUSH2 0x7ED JUMPI POP DUP1 ISZERO JUMPDEST ISZERO PUSH2 0x80B JUMPI PUSH1 0x40 MLOAD PUSH4 0x579A4801 PUSH1 0xE0 SHL DUP2 MSTORE PUSH1 0x4 ADD PUSH1 0x40 MLOAD DUP1 SWAP2 SUB SWAP1 REVERT JUMPDEST DUP1 PUSH2 0x81E DUP4 PUSH8 0xDE0B6B3A7640000 PUSH2 0xD2F JUMP JUMPDEST PUSH2 0x828 SWAP2 SWAP1 PUSH2 0xD58 JUMP JUMPDEST SWAP7 TIMESTAMP SWAP7 POP SWAP5 POP POP POP POP POP JUMP JUMPDEST PUSH2 0x83C PUSH2 0x8A4 JUMP JUMPDEST PUSH1 0x1 DUP1 SLOAD PUSH1 0x1 PUSH1 0x1 PUSH1 0xA0 SHL SUB DUP4 AND PUSH1 0x1 PUSH1 0x1 PUSH1 0xA0 SHL SUB NOT SWAP1 SWAP2 AND DUP2 OR SWAP1 SWAP2 SSTORE PUSH2 0x86C PUSH0 SLOAD PUSH1 0x1 PUSH1 0x1 PUSH1 0xA0 SHL SUB AND SWAP1 JUMP JUMPDEST PUSH1 0x1 PUSH1 0x1 PUSH1 0xA0 SHL SUB AND PUSH32 0x38D16B8CAC22D99FC7C124B9CD0DE2D3FA1FAEF420BFE791D8C362D765E22700 PUSH1 0x40 MLOAD PUSH1 0x40 MLOAD DUP1 SWAP2 SUB SWAP1 LOG3 POP JUMP JUMPDEST PUSH0 SLOAD PUSH1 0x1 PUSH1 0x1 PUSH1 0xA0 SHL SUB AND CALLER EQ PUSH2 0x6D5 JUMPI PUSH1 0x40 MLOAD PUSH4 0x118CDAA7 PUSH1 0xE0 SHL DUP2 MSTORE CALLER PUSH1 0x4 DUP3 ADD MSTORE PUSH1 0x24 ADD PUSH2 0x3E2 JUMP JUMPDEST PUSH1 0x1 DUP1 SLOAD PUSH1 0x1 PUSH1 0x1 PUSH1 0xA0 SHL SUB NOT AND SWAP1 SSTORE PUSH2 0x718 DUP2 PUSH0 DUP1 SLOAD PUSH1 0x1 PUSH1 0x1 PUSH1 0xA0 SHL SUB DUP4 DUP2 AND PUSH1 0x1 PUSH1 0x1 PUSH1 0xA0 SHL SUB NOT DUP4 AND DUP2 OR DUP5 SSTORE PUSH1 0x40 MLOAD SWAP2 SWAP1 SWAP3 AND SWAP3 DUP4 SWAP2 PUSH32 0x8BE0079C531659141344CD1FD0A4F28419497F9722A3DAAFE3B4186F6B6457E0 SWAP2 SWAP1 LOG3 POP POP JUMP JUMPDEST PUSH4 0x4E487B71 PUSH1 0xE0 SHL PUSH0 MSTORE PUSH1 0x41 PUSH1 0x4 MSTORE PUSH1 0x24 PUSH0 REVERT JUMPDEST PUSH1 0x40 MLOAD PUSH1 0x1F DUP3 ADD PUSH1 0x1F NOT AND DUP2 ADD PUSH1 0x1 PUSH1 0x1 PUSH1 0x40 SHL SUB DUP2 GT DUP3 DUP3 LT OR ISZERO PUSH2 0x96F JUMPI PUSH2 0x96F PUSH2 0x933 JUMP JUMPDEST PUSH1 0x40 MSTORE SWAP2 SWAP1 POP JUMP JUMPDEST PUSH0 DUP3 PUSH1 0x1F DUP4 ADD SLT PUSH2 0x986 JUMPI PUSH0 PUSH0 REVERT JUMPDEST DUP2 CALLDATALOAD PUSH1 0x1 PUSH1 0x1 PUSH1 0x40 SHL SUB DUP2 GT ISZERO PUSH2 0x99F JUMPI PUSH2 0x99F PUSH2 0x933 JUMP JUMPDEST PUSH2 0x9B2 PUSH1 0x1F DUP3 ADD PUSH1 0x1F NOT AND PUSH1 0x20 ADD PUSH2 0x947 JUMP JUMPDEST DUP2 DUP2 MSTORE DUP5 PUSH1 0x20 DUP4 DUP7 ADD ADD GT ISZERO PUSH2 0x9C6 JUMPI PUSH0 PUSH0 REVERT JUMPDEST DUP2 PUSH1 0x20 DUP6 ADD PUSH1 0x20 DUP4 ADD CALLDATACOPY PUSH0 SWAP2 DUP2 ADD PUSH1 0x20 ADD SWAP2 SWAP1 SWAP2 MSTORE SWAP4 SWAP3 POP POP POP JUMP JUMPDEST PUSH0 PUSH0 PUSH1 0x40 DUP4 DUP6 SUB SLT ISZERO PUSH2 0x9F3 JUMPI PUSH0 PUSH0 REVERT JUMPDEST DUP3 CALLDATALOAD PUSH1 0x1 PUSH1 0x1 PUSH1 0x40 SHL SUB DUP2 GT ISZERO PUSH2 0xA08 JUMPI PUSH0 PUSH0 REVERT JUMPDEST PUSH2 0xA14 DUP6 DUP3 DUP7 ADD PUSH2 0x977 JUMP JUMPDEST SWAP3 POP POP PUSH1 0x20 DUP4 ADD CALLDATALOAD DUP1 ISZERO ISZERO DUP2 EQ PUSH2 0xA29 JUMPI PUSH0 PUSH0 REVERT JUMPDEST DUP1 SWAP2 POP POP SWAP3 POP SWAP3 SWAP1 POP JUMP JUMPDEST PUSH0 PUSH0 PUSH1 0x40 DUP4 DUP6 SUB SLT ISZERO PUSH2 0xA45 JUMPI PUSH0 PUSH0 REVERT JUMPDEST DUP3 CALLDATALOAD PUSH1 0x1 PUSH1 0x1 PUSH1 0x40 SHL SUB DUP2 GT ISZERO PUSH2 0xA5A JUMPI PUSH0 PUSH0 REVERT JUMPDEST PUSH2 0xA66 DUP6 DUP3 DUP7 ADD PUSH2 0x977 JUMP JUMPDEST SWAP6 PUSH1 0x20 SWAP5 SWAP1 SWAP5 ADD CALLDATALOAD SWAP5 POP POP POP POP JUMP JUMPDEST PUSH0 PUSH1 0x20 DUP3 DUP5 SUB SLT ISZERO PUSH2 0xA85 JUMPI PUSH0 PUSH0 REVERT JUMPDEST DUP2 CALLDATALOAD PUSH1 0x1 PUSH1 0x1 PUSH1 0x40 SHL SUB DUP2 GT ISZERO PUSH2 0xA9A JUMPI PUSH0 PUSH0 REVERT JUMPDEST PUSH2 0xAA6 DUP5 DUP3 DUP6 ADD PUSH2 0x977 JUMP JUMPDEST SWAP5 SWAP4 POP POP POP POP JUMP JUMPDEST PUSH0 PUSH1 0x1 PUSH1 0x1 PUSH1 0x40 SHL SUB DUP3 GT ISZERO PUSH2 0xAC6 JUMPI PUSH2 0xAC6 PUSH2 0x933 JUMP JUMPDEST POP PUSH1 0x5 SHL PUSH1 0x20 ADD SWAP1 JUMP JUMPDEST PUSH0 DUP3 PUSH1 0x1F DUP4 ADD SLT PUSH2 0xADF JUMPI PUSH0 PUSH0 REVERT JUMPDEST DUP2 CALLDATALOAD PUSH2 0xAF2 PUSH2 0xAED DUP3 PUSH2 0xAAE JUMP JUMPDEST PUSH2 0x947 JUMP JUMPDEST DUP1 DUP3 DUP3 MSTORE PUSH1 0x20 DUP3 ADD SWAP2 POP PUSH1 0x20 DUP4 PUSH1 0x5 SHL DUP7 ADD ADD SWAP3 POP DUP6 DUP4 GT ISZERO PUSH2 0xB13 JUMPI PUSH0 PUSH0 REVERT JUMPDEST PUSH1 0x20 DUP6 ADD JUMPDEST DUP4 DUP2 LT ISZERO PUSH2 0xB30 JUMPI DUP1 CALLDATALOAD DUP4 MSTORE PUSH1 0x20 SWAP3 DUP4 ADD SWAP3 ADD PUSH2 0xB18 JUMP JUMPDEST POP SWAP6 SWAP5 POP POP POP POP POP JUMP JUMPDEST PUSH0 PUSH0 PUSH1 0x40 DUP4 DUP6 SUB SLT ISZERO PUSH2 0xB4B JUMPI PUSH0 PUSH0 REVERT JUMPDEST DUP3 CALLDATALOAD PUSH1 0x1 PUSH1 0x1 PUSH1 0x40 SHL SUB DUP2 GT ISZERO PUSH2 0xB60 JUMPI PUSH0 PUSH0 REVERT JUMPDEST DUP4 ADD PUSH1 0x1F DUP2 ADD DUP6 SGT PUSH2 0xB70 JUMPI PUSH0 PUSH0 REVERT JUMPDEST DUP1 CALLDATALOAD PUSH2 0xB7E PUSH2 0xAED DUP3 PUSH2 0xAAE JUMP JUMPDEST DUP1 DUP3 DUP3 MSTORE PUSH1 0x20 DUP3 ADD SWAP2 POP PUSH1 0x20 DUP4 PUSH1 0x5 SHL DUP6 ADD ADD SWAP3 POP DUP8 DUP4 GT ISZERO PUSH2 0xB9F JUMPI PUSH0 PUSH0 REVERT JUMPDEST PUSH1 0x20 DUP5 ADD JUMPDEST DUP4 DUP2 LT ISZERO PUSH2 0xBDF JUMPI DUP1 CALLDATALOAD PUSH1 0x1 PUSH1 0x1 PUSH1 0x40 SHL SUB DUP2 GT ISZERO PUSH2 0xBC1 JUMPI PUSH0 PUSH0 REVERT JUMPDEST PUSH2 0xBD0 DUP11 PUSH1 0x20 DUP4 DUP10 ADD ADD PUSH2 0x977 JUMP JUMPDEST DUP5 MSTORE POP PUSH1 0x20 SWAP3 DUP4 ADD SWAP3 ADD PUSH2 0xBA4 JUMP JUMPDEST POP SWAP5 POP POP POP POP PUSH1 0x20 DUP4 ADD CALLDATALOAD PUSH1 0x1 PUSH1 0x1 PUSH1 0x40 SHL SUB DUP2 GT ISZERO PUSH2 0xBFD JUMPI PUSH0 PUSH0 REVERT JUMPDEST PUSH2 0xC09 DUP6 DUP3 DUP7 ADD PUSH2 0xAD0 JUMP JUMPDEST SWAP2 POP POP SWAP3 POP SWAP3 SWAP1 POP JUMP JUMPDEST PUSH0 PUSH0 PUSH0 PUSH1 0x60 DUP5 DUP7 SUB SLT ISZERO PUSH2 0xC25 JUMPI PUSH0 PUSH0 REVERT JUMPDEST DUP4 CALLDATALOAD PUSH1 0x1 PUSH1 0x1 PUSH1 0x40 SHL SUB DUP2 GT ISZERO PUSH2 0xC3A JUMPI PUSH0 PUSH0 REVERT JUMPDEST PUSH2 0xC46 DUP7 DUP3 DUP8 ADD PUSH2 0x977 JUMP JUMPDEST SWAP4 POP POP PUSH1 0x20 DUP5 ADD CALLDATALOAD PUSH1 0x1 PUSH1 0x1 PUSH1 0x40 SHL SUB DUP2 GT ISZERO PUSH2 0xC61 JUMPI PUSH0 PUSH0 REVERT JUMPDEST PUSH2 0xC6D DUP7 DUP3 DUP8 ADD PUSH2 0x977 JUMP JUMPDEST SWAP4 SWAP7 SWAP4 SWAP6 POP POP POP POP PUSH1 0x40 SWAP2 SWAP1 SWAP2 ADD CALLDATALOAD SWAP1 JUMP JUMPDEST PUSH0 PUSH0 PUSH1 0x40 DUP4 DUP6 SUB SLT ISZERO PUSH2 0xC90 JUMPI PUSH0 PUSH0 REVERT JUMPDEST DUP3 CALLDATALOAD PUSH1 0x1 PUSH1 0x1 PUSH1 0x40 SHL SUB DUP2 GT ISZERO PUSH2 0xCA5 JUMPI PUSH0 PUSH0 REVERT JUMPDEST PUSH2 0xCB1 DUP6 DUP3 DUP7 ADD PUSH2 0x977 JUMP JUMPDEST SWAP3 POP POP PUSH1 0x20 DUP4 ADD CALLDATALOAD PUSH1 0x1 PUSH1 0x1 PUSH1 0x40 SHL SUB DUP2 GT ISZERO PUSH2 0xCCC JUMPI PUSH0 PUSH0 REVERT JUMPDEST PUSH2 0xC09 DUP6 DUP3 DUP7 ADD PUSH2 0x977 JUMP JUMPDEST PUSH0 PUSH1 0x20 DUP3 DUP5 SUB SLT ISZERO PUSH2 0xCE8 JUMPI PUSH0 PUSH0 REVERT JUMPDEST DUP2 CALLDATALOAD PUSH1 0x1 PUSH1 0x1 PUSH1 0xA0 SHL SUB DUP2 AND DUP2 EQ PUSH2 0xCFE JUMPI PUSH0 PUSH0 REVERT JUMPDEST SWAP4 SWAP3 POP POP POP JUMP JUMPDEST PUSH0 DUP3 MLOAD DUP1 PUSH1 0x20 DUP6 ADD DUP5 MCOPY PUSH0 SWAP3 ADD SWAP2 DUP3 MSTORE POP SWAP2 SWAP1 POP JUMP JUMPDEST PUSH4 0x4E487B71 PUSH1 0xE0 SHL PUSH0 MSTORE PUSH1 0x32 PUSH1 0x4 MSTORE PUSH1 0x24 PUSH0 REVERT JUMPDEST DUP1 DUP3 MUL DUP2 ISZERO DUP3 DUP3 DIV DUP5 EQ OR PUSH2 0xD52 JUMPI PUSH4 0x4E487B71 PUSH1 0xE0 SHL PUSH0 MSTORE PUSH1 0x11 PUSH1 0x4 MSTORE PUSH1 0x24 PUSH0 REVERT JUMPDEST SWAP3 SWAP2 POP POP JUMP JUMPDEST PUSH0 DUP3 PUSH2 0xD72 JUMPI PUSH4 0x4E487B71 PUSH1 0xE0 SHL PUSH0 MSTORE PUSH1 0x12 PUSH1 0x4 MSTORE PUSH1 0x24 PUSH0 REVERT JUMPDEST POP DIV SWAP1 JUMP INVALID LOG2 PUSH5 0x6970667358 0x22 SLT KECCAK256 SWAP11 ORIGIN 0xAE DELEGATECALL JUMPDEST 0xBB OR SWAP12 SELFBALANCE 0xB2 0xEE 0xAB CREATE LOG2 SLOAD GT PUSH29 0x3171FAB7BC6AC19E2EB10032D0651564736F6C634300081B0033000000 "},"methodIdentifiers":{"acceptOwnership()":"79ba5097","convertAmount(string,string,uint256)":"31eb1d44","getPrice(string)":"524f3889","getPriceRatio(string,string)":"efe3bd12","isPriceFresh(string)":"dd671f50","owner()":"8da5cb5b","pendingOwner()":"e30c3978","prices(string)":"c3825f4b","renounceOwnership()":"715018a6","setPrice(string,uint256)":"22e01192","setPrices(string[],uint256[])":"27822749","setSupportedSymbol(string,bool)":"1551b090","supportedSymbols(string)":"26f875b0","transferOwnership(address)":"f2fde38b"}}}}}