{
  "_format": "hh3-artifact-1",
  "contractName": "FlarePriceReader",
  "sourceName": "contracts/integrations/flare/FlarePriceReader.sol",
  "abi": [
    {
      "inputs": [
        {
          "internalType": "address",
          "name": "initialOwner",
          "type": "address"
        },
        {
          "internalType": "address",
          "name": "_ftsoRegistry",
          "type": "address"
        }
      ],
      "stateMutability": "nonpayable",
      "type": "constructor"
    },
    {
      "inputs": [],
      "name": "InvalidRegistry",
      "type": "error"
    },
    {
      "inputs": [
        {
          "internalType": "address",
          "name": "owner",
          "type": "address"
        }
      ],
      "name": "OwnableInvalidOwner",
      "type": "error"
    },
    {
      "inputs": [
        {
          "internalType": "address",
          "name": "account",
          "type": "address"
        }
      ],
      "name": "OwnableUnauthorizedAccount",
      "type": "error"
    },
    {
      "inputs": [],
      "name": "PriceNotAvailable",
      "type": "error"
    },
    {
      "inputs": [],
      "name": "StalePrice",
      "type": "error"
    },
    {
      "inputs": [],
      "name": "UnsupportedSymbol",
      "type": "error"
    },
    {
      "anonymous": false,
      "inputs": [
        {
          "indexed": true,
          "internalType": "address",
          "name": "newRegistry",
          "type": "address"
        }
      ],
      "name": "FtsoRegistryUpdated",
      "type": "event"
    },
    {
      "anonymous": false,
      "inputs": [
        {
          "indexed": true,
          "internalType": "address",
          "name": "previousOwner",
          "type": "address"
        },
        {
          "indexed": true,
          "internalType": "address",
          "name": "newOwner",
          "type": "address"
        }
      ],
      "name": "OwnershipTransferStarted",
      "type": "event"
    },
    {
      "anonymous": false,
      "inputs": [
        {
          "indexed": true,
          "internalType": "address",
          "name": "previousOwner",
          "type": "address"
        },
        {
          "indexed": true,
          "internalType": "address",
          "name": "newOwner",
          "type": "address"
        }
      ],
      "name": "OwnershipTransferred",
      "type": "event"
    },
    {
      "anonymous": false,
      "inputs": [
        {
          "indexed": true,
          "internalType": "string",
          "name": "symbol",
          "type": "string"
        },
        {
          "indexed": false,
          "internalType": "uint256",
          "name": "price",
          "type": "uint256"
        },
        {
          "indexed": false,
          "internalType": "uint256",
          "name": "timestamp",
          "type": "uint256"
        }
      ],
      "name": "PriceRead",
      "type": "event"
    },
    {
      "anonymous": false,
      "inputs": [
        {
          "indexed": true,
          "internalType": "string",
          "name": "symbol",
          "type": "string"
        },
        {
          "indexed": false,
          "internalType": "bool",
          "name": "supported",
          "type": "bool"
        }
      ],
      "name": "SymbolSupported",
      "type": "event"
    },
    {
      "inputs": [],
      "name": "MAX_PRICE_AGE",
      "outputs": [
        {
          "internalType": "uint256",
          "name": "",
          "type": "uint256"
        }
      ],
      "stateMutability": "view",
      "type": "function"
    },
    {
      "inputs": [],
      "name": "acceptOwnership",
      "outputs": [],
      "stateMutability": "nonpayable",
      "type": "function"
    },
    {
      "inputs": [
        {
          "internalType": "string[]",
          "name": "symbols",
          "type": "string[]"
        }
      ],
      "name": "addSupportedSymbols",
      "outputs": [],
      "stateMutability": "nonpayable",
      "type": "function"
    },
    {
      "inputs": [
        {
          "internalType": "uint256",
          "name": "amount",
          "type": "uint256"
        },
        {
          "internalType": "string",
          "name": "fromSymbol",
          "type": "string"
        },
        {
          "internalType": "string",
          "name": "toSymbol",
          "type": "string"
        }
      ],
      "name": "convertAmount",
      "outputs": [
        {
          "internalType": "uint256",
          "name": "convertedAmount",
          "type": "uint256"
        }
      ],
      "stateMutability": "view",
      "type": "function"
    },
    {
      "inputs": [],
      "name": "ftsoRegistry",
      "outputs": [
        {
          "internalType": "contract IFtsoRegistry",
          "name": "",
          "type": "address"
        }
      ],
      "stateMutability": "view",
      "type": "function"
    },
    {
      "inputs": [
        {
          "internalType": "string",
          "name": "symbol",
          "type": "string"
        }
      ],
      "name": "getPrice",
      "outputs": [
        {
          "internalType": "uint256",
          "name": "price",
          "type": "uint256"
        },
        {
          "internalType": "uint256",
          "name": "decimals",
          "type": "uint256"
        },
        {
          "internalType": "uint256",
          "name": "timestamp",
          "type": "uint256"
        }
      ],
      "stateMutability": "view",
      "type": "function"
    },
    {
      "inputs": [
        {
          "internalType": "string",
          "name": "baseSymbol",
          "type": "string"
        },
        {
          "internalType": "string",
          "name": "quoteSymbol",
          "type": "string"
        }
      ],
      "name": "getPriceRatio",
      "outputs": [
        {
          "internalType": "uint256",
          "name": "ratio",
          "type": "uint256"
        },
        {
          "internalType": "uint256",
          "name": "timestamp",
          "type": "uint256"
        }
      ],
      "stateMutability": "view",
      "type": "function"
    },
    {
      "inputs": [
        {
          "internalType": "string",
          "name": "symbol",
          "type": "string"
        }
      ],
      "name": "isPriceFresh",
      "outputs": [
        {
          "internalType": "bool",
          "name": "",
          "type": "bool"
        }
      ],
      "stateMutability": "view",
      "type": "function"
    },
    {
      "inputs": [],
      "name": "owner",
      "outputs": [
        {
          "internalType": "address",
          "name": "",
          "type": "address"
        }
      ],
      "stateMutability": "view",
      "type": "function"
    },
    {
      "inputs": [],
      "name": "pendingOwner",
      "outputs": [
        {
          "internalType": "address",
          "name": "",
          "type": "address"
        }
      ],
      "stateMutability": "view",
      "type": "function"
    },
    {
      "inputs": [],
      "name": "renounceOwnership",
      "outputs": [],
      "stateMutability": "nonpayable",
      "type": "function"
    },
    {
      "inputs": [
        {
          "internalType": "address",
          "name": "_ftsoRegistry",
          "type": "address"
        }
      ],
      "name": "setFtsoRegistry",
      "outputs": [],
      "stateMutability": "nonpayable",
      "type": "function"
    },
    {
      "inputs": [
        {
          "internalType": "string",
          "name": "symbol",
          "type": "string"
        },
        {
          "internalType": "bool",
          "name": "supported",
          "type": "bool"
        }
      ],
      "name": "setSupportedSymbol",
      "outputs": [],
      "stateMutability": "nonpayable",
      "type": "function"
    },
    {
      "inputs": [
        {
          "internalType": "string",
          "name": "",
          "type": "string"
        }
      ],
      "name": "supportedSymbols",
      "outputs": [
        {
          "internalType": "bool",
          "name": "",
          "type": "bool"
        }
      ],
      "stateMutability": "view",
      "type": "function"
    },
    {
      "inputs": [
        {
          "internalType": "address",
          "name": "newOwner",
          "type": "address"
        }
      ],
      "name": "transferOwnership",
      "outputs": [],
      "stateMutability": "nonpayable",
      "type": "function"
    }
  ],
  "bytecode": "0x608060405234801561000f575f5ffd5b5060405161134d38038061134d83398101604081905261002e91610219565b816001600160a01b03811661005c57604051631e4fbdf760e01b81525f600482015260240160405180910390fd5b61006581610193565b506001600160a01b03811661008d576040516311a1e69760e01b815260040160405180910390fd5b600280546001600160a01b0319166001600160a01b039290921691909117905550604080516223262960e91b8152600380820181905282519182900360239081018320805460ff199081166001908117909255635553444360e01b85526004808601859052865195869003602490810187208054841685179055631554d11560e21b875290860185905286519586900301852080548216831790556242544360e81b85528484018490528551948590038301852080548216831790556208aa8960eb1b85528484018490528551948590038301852080548216831790556205852560ec1b855284840193909352935192839003019091208054909116909117905561024a565b600180546001600160a01b03191690556101ac816101af565b50565b5f80546001600160a01b038381166001600160a01b0319831681178455604051919092169283917f8be0079c531659141344cd1fd0a4f28419497f9722a3daafe3b4186f6b6457e09190a35050565b80516001600160a01b0381168114610214575f5ffd5b919050565b5f5f6040838503121561022a575f5ffd5b610233836101fe565b9150610241602084016101fe565b90509250929050565b6110f6806102575f395ff3fe608060405234801561000f575f5ffd5b50600436106100f0575f3560e01c806372ef8d0911610093578063dd671f5011610063578063dd671f5014610215578063e30c397814610228578063efe3bd1214610239578063f2fde38b14610261575f5ffd5b806372ef8d09146101e157806379ba5097146101f45780638da5cb5b146101fc5780639d7f7e861461020c575f5ffd5b806338b5f869116100ce57806338b5f8691461016d578063524f3889146101985780635fc56014146101c6578063715018a6146101d9575f5ffd5b80631551b090146100f457806326f875b014610109578063318c68641461014c575b5f5ffd5b610107610102366004610c6b565b610274565b005b610137610117366004610cbe565b805160208183018101805160038252928201919093012091525460ff1681565b60405190151581526020015b60405180910390f35b61015f61015a366004610cf8565b6102f9565b604051908152602001610143565b600254610180906001600160a01b031681565b6040516001600160a01b039091168152602001610143565b6101ab6101a6366004610cbe565b610525565b60408051938452602084019290925290820152606001610143565b6101076101d4366004610d65565b610633565b6101076106ab565b6101076101ef366004610d92565b6106be565b61010761078c565b5f546001600160a01b0316610180565b61015f61012c81565b610137610223366004610cbe565b6107d5565b6001546001600160a01b0316610180565b61024c610247366004610e5e565b61088e565b60408051928352602083019190915201610143565b61010761026f366004610d65565b610abb565b61027c610b2b565b8060038360405161028d9190610ec3565b908152604051908190036020018120805492151560ff19909316929092179091556102b9908390610ec3565b6040519081900381208215158252907f8247287339e150ff9daaa98e72a67a311abe21d1735d99754d1f974aa3bd99699060200160405180910390a25050565b5f60038360405161030a9190610ec3565b9081526040519081900360200190205460ff1661033a57604051639a593f7f60e01b815260040160405180910390fd5b60038260405161034a9190610ec3565b9081526040519081900360200190205460ff1661037a57604051639a593f7f60e01b815260040160405180910390fd5b60025460405163534d7ee360e11b81525f91829182916001600160a01b03169063a69afdc6906103ae908990600401610ed9565b606060405180830381865afa1580156103c9573d5f5f3e3d5ffd5b505050506040513d601f19601f820116820180604052508101906103ed9190610f0e565b60025460405163534d7ee360e11b815293965091945092505f91829182916001600160a01b039091169063a69afdc69061042b908b90600401610ed9565b606060405180830381865afa158015610446573d5f5f3e3d5ffd5b505050506040513d601f19601f8201168201806040525081019061046a9190610f0e565b925092509250855f148061047c575082155b1561049a5760405163579a480160e01b815260040160405180910390fd5b5f8286106104a857826104aa565b855b90506104b861012c82610f4d565b4211156104d857604051630cd5fa0760e11b815260040160405180910390fd5b6104e385600a611049565b6104ed9085611054565b6104f883600a611049565b610502898e611054565b61050c9190611054565b610516919061106b565b9b9a5050505050505050505050565b5f5f5f6003846040516105389190610ec3565b9081526040519081900360200190205460ff1661056857604051639a593f7f60e01b815260040160405180910390fd5b60025460405163534d7ee360e11b81526001600160a01b039091169063a69afdc690610598908790600401610ed9565b606060405180830381865afa1580156105b3573d5f5f3e3d5ffd5b505050506040513d601f19601f820116820180604052508101906105d79190610f0e565b91945090925090505f8390036106005760405163579a480160e01b815260040160405180910390fd5b61060c61012c82610f4d565b42111561062c57604051630cd5fa0760e11b815260040160405180910390fd5b9193909250565b61063b610b2b565b6001600160a01b038116610662576040516311a1e69760e01b815260040160405180910390fd5b600280546001600160a01b0319166001600160a01b0383169081179091556040517fe123745201fbaf8c6658a1c7e6477f1587c8105a23a4dd4339ea2ecc7328785a905f90a250565b6106b3610b2b565b6106bc5f610b57565b565b6106c6610b2b565b5f5b815181101561078857600160038383815181106106e7576106e761108a565b60200260200101516040516106fc9190610ec3565b908152604051908190036020019020805491151560ff1990921691909117905581518290829081106107305761073061108a565b60200260200101516040516107459190610ec3565b60405190819003812060018252907f8247287339e150ff9daaa98e72a67a311abe21d1735d99754d1f974aa3bd99699060200160405180910390a26001016106c8565b5050565b60015433906001600160a01b031681146107c95760405163118cdaa760e01b81526001600160a01b03821660048201526024015b60405180910390fd5b6107d281610b57565b50565b5f6003826040516107e69190610ec3565b9081526040519081900360200190205460ff1661080457505f919050565b6002546040516342a0f24360e01b81526001600160a01b03909116906342a0f24390610834908590600401610ed9565b6040805180830381865afa92505050801561086c575060408051601f3d908101601f191682019092526108699181019061109e565b60015b61087757505f919050565b61088361012c82610f4d565b421115949350505050565b5f5f6003846040516108a09190610ec3565b9081526040519081900360200190205460ff166108d057604051639a593f7f60e01b815260040160405180910390fd5b6003836040516108e09190610ec3565b9081526040519081900360200190205460ff1661091057604051639a593f7f60e01b815260040160405180910390fd5b60025460405163534d7ee360e11b81525f91829182916001600160a01b03169063a69afdc690610944908a90600401610ed9565b606060405180830381865afa15801561095f573d5f5f3e3d5ffd5b505050506040513d601f19601f820116820180604052508101906109839190610f0e565b60025460405163534d7ee360e11b815293965091945092505f91829182916001600160a01b039091169063a69afdc6906109c1908c90600401610ed9565b606060405180830381865afa1580156109dc573d5f5f3e3d5ffd5b505050506040513d601f19601f82011682018060405250810190610a009190610f0e565b925092509250855f1480610a12575082155b15610a305760405163579a480160e01b815260040160405180910390fd5b818510610a3d5781610a3f565b845b9650610a4d61012c88610f4d565b421115610a6d57604051630cd5fa0760e11b815260040160405180910390fd5b610a7884600a611049565b610a829084611054565b610a8d826012610f4d565b610a9890600a611049565b610aa29088611054565b610aac919061106b565b97505050505050509250929050565b610ac3610b2b565b600180546001600160a01b0383166001600160a01b03199091168117909155610af35f546001600160a01b031690565b6001600160a01b03167f38d16b8cac22d99fc7c124b9cd0de2d3fa1faef420bfe791d8c362d765e2270060405160405180910390a350565b5f546001600160a01b031633146106bc5760405163118cdaa760e01b81523360048201526024016107c0565b600180546001600160a01b03191690556107d2815f80546001600160a01b038381166001600160a01b0319831681178455604051919092169283917f8be0079c531659141344cd1fd0a4f28419497f9722a3daafe3b4186f6b6457e09190a35050565b634e487b7160e01b5f52604160045260245ffd5b604051601f8201601f1916810167ffffffffffffffff81118282101715610bf757610bf7610bba565b604052919050565b5f82601f830112610c0e575f5ffd5b813567ffffffffffffffff811115610c2857610c28610bba565b610c3b601f8201601f1916602001610bce565b818152846020838601011115610c4f575f5ffd5b816020850160208301375f918101602001919091529392505050565b5f5f60408385031215610c7c575f5ffd5b823567ffffffffffffffff811115610c92575f5ffd5b610c9e85828601610bff565b92505060208301358015158114610cb3575f5ffd5b809150509250929050565b5f60208284031215610cce575f5ffd5b813567ffffffffffffffff811115610ce4575f5ffd5b610cf084828501610bff565b949350505050565b5f5f5f60608486031215610d0a575f5ffd5b83359250602084013567ffffffffffffffff811115610d27575f5ffd5b610d3386828701610bff565b925050604084013567ffffffffffffffff811115610d4f575f5ffd5b610d5b86828701610bff565b9150509250925092565b5f60208284031215610d75575f5ffd5b81356001600160a01b0381168114610d8b575f5ffd5b9392505050565b5f60208284031215610da2575f5ffd5b813567ffffffffffffffff811115610db8575f5ffd5b8201601f81018413610dc8575f5ffd5b803567ffffffffffffffff811115610de257610de2610bba565b8060051b610df260208201610bce565b91825260208184018101929081019087841115610e0d575f5ffd5b6020850192505b83831015610e5357823567ffffffffffffffff811115610e32575f5ffd5b610e4189602083890101610bff565b83525060209283019290910190610e14565b979650505050505050565b5f5f60408385031215610e6f575f5ffd5b823567ffffffffffffffff811115610e85575f5ffd5b610e9185828601610bff565b925050602083013567ffffffffffffffff811115610ead575f5ffd5b610eb985828601610bff565b9150509250929050565b5f82518060208501845e5f920191825250919050565b602081525f82518060208401528060208501604085015e5f604082850101526040601f19601f83011684010191505092915050565b5f5f5f60608486031215610f20575f5ffd5b5050815160208301516040909301519094929350919050565b634e487b7160e01b5f52601160045260245ffd5b80820180821115610f6057610f60610f39565b92915050565b6001815b6001841115610fa157808504811115610f8557610f85610f39565b6001841615610f9357908102905b60019390931c928002610f6a565b935093915050565b5f82610fb757506001610f60565b81610fc357505f610f60565b8160018114610fd95760028114610fe357610fff565b6001915050610f60565b60ff841115610ff457610ff4610f39565b50506001821b610f60565b5060208310610133831016604e8410600b8410161715611022575081810a610f60565b61102e5f198484610f66565b805f190482111561104157611041610f39565b029392505050565b5f610d8b8383610fa9565b8082028115828204841417610f6057610f60610f39565b5f8261108557634e487b7160e01b5f52601260045260245ffd5b500490565b634e487b7160e01b5f52603260045260245ffd5b5f5f604083850312156110af575f5ffd5b50508051602090910151909290915056fea264697066735822122055820f4ce0e9c6fd266953e8263ad918feea3977d6a416d8e12a00538325806e64736f6c634300081b0033",
  "linkReferences": {},
  "deployedLinkReferences": {},
  "immutableReferences": {},
  "inputSourceName": "project/contracts/integrations/flare/FlarePriceReader.sol",
  "buildInfoId": "solc-0_8_27-60fa6de779ce94fe100d5bc4b7559ada7335ab62"
}