{
  "_format": "hh3-artifact-1",
  "contractName": "NitroliteAdapter",
  "sourceName": "contracts/integrations/yellow/NitroliteAdapter.sol",
  "abi": [
    {
      "inputs": [
        {
          "internalType": "address",
          "name": "initialOwner",
          "type": "address"
        },
        {
          "internalType": "address",
          "name": "_dealVault",
          "type": "address"
        },
        {
          "internalType": "address",
          "name": "_yellowChannel",
          "type": "address"
        }
      ],
      "stateMutability": "nonpayable",
      "type": "constructor"
    },
    {
      "inputs": [],
      "name": "ChannelAlreadyExists",
      "type": "error"
    },
    {
      "inputs": [],
      "name": "ChannelNotFound",
      "type": "error"
    },
    {
      "inputs": [],
      "name": "InvalidDeal",
      "type": "error"
    },
    {
      "inputs": [],
      "name": "InvalidState",
      "type": "error"
    },
    {
      "inputs": [
        {
          "internalType": "address",
          "name": "owner",
          "type": "address"
        }
      ],
      "name": "OwnableInvalidOwner",
      "type": "error"
    },
    {
      "inputs": [
        {
          "internalType": "address",
          "name": "account",
          "type": "address"
        }
      ],
      "name": "OwnableUnauthorizedAccount",
      "type": "error"
    },
    {
      "anonymous": false,
      "inputs": [
        {
          "indexed": true,
          "internalType": "uint256",
          "name": "dealId",
          "type": "uint256"
        },
        {
          "indexed": true,
          "internalType": "bytes32",
          "name": "channelId",
          "type": "bytes32"
        },
        {
          "indexed": false,
          "internalType": "address",
          "name": "party0",
          "type": "address"
        },
        {
          "indexed": false,
          "internalType": "address",
          "name": "party1",
          "type": "address"
        }
      ],
      "name": "ChannelCreatedForDeal",
      "type": "event"
    },
    {
      "anonymous": false,
      "inputs": [
        {
          "indexed": true,
          "internalType": "bytes32",
          "name": "channelId",
          "type": "bytes32"
        },
        {
          "indexed": true,
          "internalType": "uint256",
          "name": "dealId",
          "type": "uint256"
        }
      ],
      "name": "ChannelSettled",
      "type": "event"
    },
    {
      "anonymous": false,
      "inputs": [
        {
          "indexed": true,
          "internalType": "address",
          "name": "previousOwner",
          "type": "address"
        },
        {
          "indexed": true,
          "internalType": "address",
          "name": "newOwner",
          "type": "address"
        }
      ],
      "name": "OwnershipTransferStarted",
      "type": "event"
    },
    {
      "anonymous": false,
      "inputs": [
        {
          "indexed": true,
          "internalType": "address",
          "name": "previousOwner",
          "type": "address"
        },
        {
          "indexed": true,
          "internalType": "address",
          "name": "newOwner",
          "type": "address"
        }
      ],
      "name": "OwnershipTransferred",
      "type": "event"
    },
    {
      "anonymous": false,
      "inputs": [
        {
          "indexed": true,
          "internalType": "bytes32",
          "name": "channelId",
          "type": "bytes32"
        },
        {
          "indexed": true,
          "internalType": "uint256",
          "name": "dealId",
          "type": "uint256"
        },
        {
          "indexed": false,
          "internalType": "bytes",
          "name": "proof",
          "type": "bytes"
        }
      ],
      "name": "SettlementProofGenerated",
      "type": "event"
    },
    {
      "anonymous": false,
      "inputs": [
        {
          "indexed": true,
          "internalType": "bytes32",
          "name": "channelId",
          "type": "bytes32"
        },
        {
          "indexed": false,
          "internalType": "uint256",
          "name": "nonce",
          "type": "uint256"
        },
        {
          "indexed": false,
          "internalType": "bytes32",
          "name": "stateHash",
          "type": "bytes32"
        }
      ],
      "name": "StateUpdateProcessed",
      "type": "event"
    },
    {
      "inputs": [],
      "name": "acceptOwnership",
      "outputs": [],
      "stateMutability": "nonpayable",
      "type": "function"
    },
    {
      "inputs": [
        {
          "internalType": "bytes32",
          "name": "",
          "type": "bytes32"
        }
      ],
      "name": "channelStates",
      "outputs": [
        {
          "internalType": "bytes32",
          "name": "channelId",
          "type": "bytes32"
        },
        {
          "internalType": "uint256",
          "name": "dealId",
          "type": "uint256"
        },
        {
          "internalType": "uint256",
          "name": "nonce",
          "type": "uint256"
        },
        {
          "internalType": "bytes32",
          "name": "latestStateHash",
          "type": "bytes32"
        },
        {
          "internalType": "bool",
          "name": "active",
          "type": "bool"
        }
      ],
      "stateMutability": "view",
      "type": "function"
    },
    {
      "inputs": [
        {
          "internalType": "bytes32",
          "name": "",
          "type": "bytes32"
        }
      ],
      "name": "channelToDeal",
      "outputs": [
        {
          "internalType": "uint256",
          "name": "",
          "type": "uint256"
        }
      ],
      "stateMutability": "view",
      "type": "function"
    },
    {
      "inputs": [
        {
          "internalType": "uint256",
          "name": "dealId",
          "type": "uint256"
        },
        {
          "internalType": "address",
          "name": "party0",
          "type": "address"
        },
        {
          "internalType": "address",
          "name": "party1",
          "type": "address"
        },
        {
          "internalType": "uint256",
          "name": "initialBalance0",
          "type": "uint256"
        },
        {
          "internalType": "uint256",
          "name": "initialBalance1",
          "type": "uint256"
        }
      ],
      "name": "createChannelForDeal",
      "outputs": [
        {
          "internalType": "bytes32",
          "name": "channelId",
          "type": "bytes32"
        }
      ],
      "stateMutability": "nonpayable",
      "type": "function"
    },
    {
      "inputs": [
        {
          "internalType": "uint256",
          "name": "",
          "type": "uint256"
        }
      ],
      "name": "dealToChannel",
      "outputs": [
        {
          "internalType": "bytes32",
          "name": "",
          "type": "bytes32"
        }
      ],
      "stateMutability": "view",
      "type": "function"
    },
    {
      "inputs": [],
      "name": "dealVault",
      "outputs": [
        {
          "internalType": "contract DealVault",
          "name": "",
          "type": "address"
        }
      ],
      "stateMutability": "view",
      "type": "function"
    },
    {
      "inputs": [
        {
          "internalType": "bytes32",
          "name": "channelId",
          "type": "bytes32"
        }
      ],
      "name": "generateSettlementProof",
      "outputs": [
        {
          "internalType": "bytes",
          "name": "proof",
          "type": "bytes"
        }
      ],
      "stateMutability": "view",
      "type": "function"
    },
    {
      "inputs": [
        {
          "internalType": "uint256",
          "name": "dealId",
          "type": "uint256"
        }
      ],
      "name": "getChannelForDeal",
      "outputs": [
        {
          "internalType": "bytes32",
          "name": "channelId",
          "type": "bytes32"
        }
      ],
      "stateMutability": "view",
      "type": "function"
    },
    {
      "inputs": [
        {
          "internalType": "bytes32",
          "name": "channelId",
          "type": "bytes32"
        }
      ],
      "name": "getChannelState",
      "outputs": [
        {
          "components": [
            {
              "internalType": "bytes32",
              "name": "channelId",
              "type": "bytes32"
            },
            {
              "internalType": "uint256",
              "name": "dealId",
              "type": "uint256"
            },
            {
              "internalType": "uint256",
              "name": "nonce",
              "type": "uint256"
            },
            {
              "internalType": "bytes32",
              "name": "latestStateHash",
              "type": "bytes32"
            },
            {
              "internalType": "bool",
              "name": "active",
              "type": "bool"
            }
          ],
          "internalType": "struct NitroliteAdapter.ChannelState",
          "name": "",
          "type": "tuple"
        }
      ],
      "stateMutability": "view",
      "type": "function"
    },
    {
      "inputs": [
        {
          "internalType": "bytes32",
          "name": "channelId",
          "type": "bytes32"
        }
      ],
      "name": "getDealForChannel",
      "outputs": [
        {
          "internalType": "uint256",
          "name": "dealId",
          "type": "uint256"
        }
      ],
      "stateMutability": "view",
      "type": "function"
    },
    {
      "inputs": [
        {
          "internalType": "bytes32",
          "name": "channelId",
          "type": "bytes32"
        }
      ],
      "name": "isChannelActive",
      "outputs": [
        {
          "internalType": "bool",
          "name": "",
          "type": "bool"
        }
      ],
      "stateMutability": "view",
      "type": "function"
    },
    {
      "inputs": [],
      "name": "owner",
      "outputs": [
        {
          "internalType": "address",
          "name": "",
          "type": "address"
        }
      ],
      "stateMutability": "view",
      "type": "function"
    },
    {
      "inputs": [],
      "name": "pendingOwner",
      "outputs": [
        {
          "internalType": "address",
          "name": "",
          "type": "address"
        }
      ],
      "stateMutability": "view",
      "type": "function"
    },
    {
      "inputs": [
        {
          "internalType": "uint256",
          "name": "dealId",
          "type": "uint256"
        }
      ],
      "name": "processSettlement",
      "outputs": [],
      "stateMutability": "nonpayable",
      "type": "function"
    },
    {
      "inputs": [
        {
          "internalType": "bytes32",
          "name": "channelId",
          "type": "bytes32"
        },
        {
          "internalType": "bytes32",
          "name": "newStateHash",
          "type": "bytes32"
        },
        {
          "internalType": "uint256",
          "name": "newNonce",
          "type": "uint256"
        },
        {
          "internalType": "uint256",
          "name": "balance0",
          "type": "uint256"
        },
        {
          "internalType": "uint256",
          "name": "balance1",
          "type": "uint256"
        },
        {
          "internalType": "bytes",
          "name": "signature0",
          "type": "bytes"
        },
        {
          "internalType": "bytes",
          "name": "signature1",
          "type": "bytes"
        }
      ],
      "name": "processStateUpdate",
      "outputs": [],
      "stateMutability": "nonpayable",
      "type": "function"
    },
    {
      "inputs": [],
      "name": "renounceOwnership",
      "outputs": [],
      "stateMutability": "nonpayable",
      "type": "function"
    },
    {
      "inputs": [
        {
          "internalType": "address",
          "name": "newOwner",
          "type": "address"
        }
      ],
      "name": "transferOwnership",
      "outputs": [],
      "stateMutability": "nonpayable",
      "type": "function"
    },
    {
      "inputs": [],
      "name": "yellowChannel",
      "outputs": [
        {
          "internalType": "contract YellowChannel",
          "name": "",
          "type": "address"
        }
      ],
      "stateMutability": "view",
      "type": "function"
    }
  ],
  "bytecode": "0x60c060405234801561000f575f5ffd5b5060405161144b38038061144b83398101604081905261002e91610104565b826001600160a01b03811661005c57604051631e4fbdf760e01b81525f600482015260240160405180910390fd5b6100658161007e565b506001600160a01b039182166080521660a05250610144565b600180546001600160a01b03191690556100978161009a565b50565b5f80546001600160a01b038381166001600160a01b0319831681178455604051919092169283917f8be0079c531659141344cd1fd0a4f28419497f9722a3daafe3b4186f6b6457e09190a35050565b80516001600160a01b03811681146100ff575f5ffd5b919050565b5f5f5f60608486031215610116575f5ffd5b61011f846100e9565b925061012d602085016100e9565b915061013b604085016100e9565b90509250925092565b60805160a0516112b56101965f395f8181610334015281816103ef0152818161059a0152818161082d0152610ae101525f81816102210152818161060e015281816106d3015261095e01526112b55ff3fe608060405234801561000f575f5ffd5b5060043610610111575f3560e01c80638da5cb5b1161009e578063d18da8b11161006e578063d18da8b1146102c8578063e30c39781461031e578063ee4d49a61461032f578063f2fde38b14610356578063fa8f6f8d14610369575f5ffd5b80638da5cb5b1461025b57806391ac6de91461026b578063a59653a51461028a578063abe2754e146102a9575f5ffd5b80636c7bd700116100e45780636c7bd700146101e6578063715018a6146101f957806379ba5097146102015780637b55d2d314610209578063863d799a1461021c575f5ffd5b80633ae687a91461011557806366eed96e146101845780636a6a0ffa146101a45780636badd3f6146101b9575b5f5ffd5b610155610123366004610d26565b600460208190525f91825260409091208054600182015460028301546003840154939094015491939092909160ff1685565b6040805195865260208601949094529284019190915260608301521515608082015260a0015b60405180910390f35b610197610192366004610d26565b61039f565b60405161017b9190610d6b565b6101b76101b2366004610d26565b6104b7565b005b6101d86101c7366004610d26565b60036020525f908152604090205481565b60405190815260200161017b565b6101d86101f4366004610d98565b6106b2565b6101b7610a0e565b6101b7610a21565b6101b7610217366004610e2b565b610a6a565b6102437f000000000000000000000000000000000000000000000000000000000000000081565b6040516001600160a01b03909116815260200161017b565b5f546001600160a01b0316610243565b6101d8610279366004610d26565b5f9081526002602052604090205490565b6101d8610298366004610d26565b60026020525f908152604090205481565b6101d86102b7366004610d26565b5f9081526003602052604090205490565b6102db6102d6366004610d26565b610ba8565b60405161017b91905f60a0820190508251825260208301516020830152604083015160408301526060830151606083015260808301511515608083015292915050565b6001546001600160a01b0316610243565b6102437f000000000000000000000000000000000000000000000000000000000000000081565b6101b7610364366004610eca565b610c27565b61038f610377366004610d26565b5f908152600460208190526040909120015460ff1690565b604051901515815260200161017b565b5f818152600460208190526040909120908101546060919060ff166103d757604051630781f76560e21b815260040160405180910390fd5b604051631de5608360e21b8152600481018490525f907f00000000000000000000000000000000000000000000000000000000000000006001600160a01b031690637795820c906024015f60405180830381865afa15801561043b573d5f5f3e3d5ffd5b505050506040513d5f823e601f3d908101601f191682016040526104629190810190610fd2565b905083826001015482604001518360200151846060015185608001518660a001518760c0015160405160200161049f9897969594939291906110a8565b60405160208183030381529060405292505050919050565b6104bf610c97565b5f81815260026020526040902054806104eb57604051630781f76560e21b815260040160405180910390fd5b5f8181526004602081905260409091209081015460ff1661051f5760405163baf3f0f760e01b815260040160405180910390fd5b6040516333776cb760e11b8152600481018390525f9030906366eed96e906024015f60405180830381865afa15801561055a573d5f5f3e3d5ffd5b505050506040513d5f823e601f3d908101601f191682016040526105819190810190611101565b60405163fd3d319960e01b8152600481018590529091507f00000000000000000000000000000000000000000000000000000000000000006001600160a01b03169063fd3d3199906024015f604051808303815f87803b1580156105e3575f5ffd5b505af11580156105f5573d5f5f3e3d5ffd5b505060405163ed31aaa760e01b81526001600160a01b037f000000000000000000000000000000000000000000000000000000000000000016925063ed31aaa79150610647908790859060040161113b565b5f604051808303815f87803b15801561065e575f5ffd5b505af1158015610670573d5f5f3e3d5ffd5b50505060048301805460ff1916905550604051849084907fe7d367a3deacc32ccfcbd6d5a2e64c3db740266155b811d67c6d758445c04d7d905f90a350505050565b5f6106bb610c97565b6040516320bf56eb60e21b8152600481018790525f907f00000000000000000000000000000000000000000000000000000000000000006001600160a01b0316906382fd5bac9060240161014060405180830381865afa158015610721573d5f5f3e3d5ffd5b505050506040513d601f19601f820116820180604052508101906107459190611171565b80519091505f03610769576040516386c2407160e01b815260040160405180910390fd5b60408051602081018990526bffffffffffffffffffffffff19606089811b8216938301939093529187901b909116605482015242606882015260880160408051601f1981840301815291815281516020928301205f8a81526002909352912054909250156107ea57604051630ec0f14960e01b815260040160405180910390fd5b604051636d23798560e01b8152600481018390526001600160a01b0387811660248301528681166044830152606482018690526084820185905260a482018990527f00000000000000000000000000000000000000000000000000000000000000001690636d2379859060c4015f604051808303815f87803b15801561086e575f5ffd5b505af1158015610880573d5f5f3e3d5ffd5b5050505f888152600260209081526040808320869055858352600382528083208b9055805160a0810182528681528083018c9052808201849052815192830189905290820187905260608083019390935292509082019060800160408051808303601f190181529181528151602092830120835260019282018390525f86815260048084529082902085518155928501519383019390935583810151600283015560608401516003830155608090930151908201805460ff19169115159190911790559051639efc68d760e01b8152908101889052602481018390527f00000000000000000000000000000000000000000000000000000000000000006001600160a01b031690639efc68d7906044015f604051808303815f87803b1580156109a7575f5ffd5b505af11580156109b9573d5f5f3e3d5ffd5b5050604080516001600160a01b03808b168252891660208201528593508a92507f47f16917e3e08fb52b3e6efc9aef5b93e38c1d9921ad7983641e11c3060c5a99910160405180910390a35095945050505050565b610a16610c97565b610a1f5f610cc3565b565b60015433906001600160a01b03168114610a5e5760405163118cdaa760e01b81526001600160a01b03821660048201526024015b60405180910390fd5b610a6781610cc3565b50565b610a72610c97565b5f8981526004602081905260409091209081015460ff16610aa657604051630781f76560e21b815260040160405180910390fd5b80600201548811610aca5760405163baf3f0f760e01b815260040160405180910390fd5b604051633e1827a560e11b81526001600160a01b037f00000000000000000000000000000000000000000000000000000000000000001690637c304f4a90610b26908d908d908d908d908d908d908d908d908d9060040161122b565b5f604051808303815f87803b158015610b3d575f5ffd5b505af1158015610b4f573d5f5f3e3d5ffd5b50505050600281018890556003810189905560408051898152602081018b90528b917f7e563edc8cac6b4b50292b69ef71ca1526597504f2ff377d20554e65c2da434c910160405180910390a250505050505050505050565b610bd76040518060a001604052805f81526020015f81526020015f81526020015f81526020015f151581525090565b505f90815260046020818152604092839020835160a081018552815481526001820154928101929092526002810154938201939093526003830154606082015291015460ff161515608082015290565b610c2f610c97565b600180546001600160a01b0383166001600160a01b03199091168117909155610c5f5f546001600160a01b031690565b6001600160a01b03167f38d16b8cac22d99fc7c124b9cd0de2d3fa1faef420bfe791d8c362d765e2270060405160405180910390a350565b5f546001600160a01b03163314610a1f5760405163118cdaa760e01b8152336004820152602401610a55565b600180546001600160a01b0319169055610a67815f80546001600160a01b038381166001600160a01b0319831681178455604051919092169283917f8be0079c531659141344cd1fd0a4f28419497f9722a3daafe3b4186f6b6457e09190a35050565b5f60208284031215610d36575f5ffd5b5035919050565b5f81518084528060208401602086015e5f602082860101526020601f19601f83011685010191505092915050565b602081525f610d7d6020830184610d3d565b9392505050565b6001600160a01b0381168114610a67575f5ffd5b5f5f5f5f5f60a08688031215610dac575f5ffd5b853594506020860135610dbe81610d84565b93506040860135610dce81610d84565b94979396509394606081013594506080013592915050565b5f5f83601f840112610df6575f5ffd5b50813567ffffffffffffffff811115610e0d575f5ffd5b602083019150836020828501011115610e24575f5ffd5b9250929050565b5f5f5f5f5f5f5f5f5f60e08a8c031215610e43575f5ffd5b8935985060208a0135975060408a0135965060608a0135955060808a0135945060a08a013567ffffffffffffffff811115610e7c575f5ffd5b610e888c828d01610de6565b90955093505060c08a013567ffffffffffffffff811115610ea7575f5ffd5b610eb38c828d01610de6565b915080935050809150509295985092959850929598565b5f60208284031215610eda575f5ffd5b8135610d7d81610d84565b634e487b7160e01b5f52604160045260245ffd5b604051610100810167ffffffffffffffff81118282101715610f1d57610f1d610ee5565b60405290565b604051610140810167ffffffffffffffff81118282101715610f1d57610f1d610ee5565b5f82601f830112610f56575f5ffd5b815167ffffffffffffffff811115610f7057610f70610ee5565b604051601f8201601f19908116603f0116810167ffffffffffffffff81118282101715610f9f57610f9f610ee5565b604052818152838201602001851015610fb6575f5ffd5b8160208501602083015e5f918101602001919091529392505050565b5f60208284031215610fe2575f5ffd5b815167ffffffffffffffff811115610ff8575f5ffd5b8201610100818503121561100a575f5ffd5b611012610ef9565b815181526020808301519082015260408083015190820152606080830151908201526080808301519082015260a082015167ffffffffffffffff811115611057575f5ffd5b61106386828501610f47565b60a08301525060c082015167ffffffffffffffff811115611082575f5ffd5b61108e86828501610f47565b60c08301525060e091820151918101919091529392505050565b8881528760208201528660408201528560608201528460808201528360a082015261010060c08201525f6110e0610100830185610d3d565b82810360e08401526110f28185610d3d565b9b9a5050505050505050505050565b5f60208284031215611111575f5ffd5b815167ffffffffffffffff811115611127575f5ffd5b61113384828501610f47565b949350505050565b828152604060208201525f6111336040830184610d3d565b805161115e81610d84565b919050565b80516005811061115e575f5ffd5b5f610140828403128015611183575f5ffd5b5061118c610f23565b8251815261119c60208401611153565b602082015260408381015190820152606080840151908201526080808401519082015260a0808401519082015260c080840151908201526111df60e08401611163565b60e08201526101008381015190820152610120928301519281019290925250919050565b81835281816020850137505f828201602090810191909152601f909101601f19169091010190565b89815288602082015287604082015286606082015285608082015260e060a08201525f61125c60e083018688611203565b82810360c084015261126f818587611203565b9c9b50505050505050505050505056fea2646970667358221220edd5e417cfece7b489e1d620d5a94d2d7d962b65be29c4d78532d49c8d0bff2264736f6c634300081b0033",
  "linkReferences": {},
  "deployedLinkReferences": {},
  "immutableReferences": {
    "11558": [
      {
        "length": 32,
        "start": 545
      },
      {
        "length": 32,
        "start": 1550
      },
      {
        "length": 32,
        "start": 1747
      },
      {
        "length": 32,
        "start": 2398
      }
    ],
    "11562": [
      {
        "length": 32,
        "start": 820
      },
      {
        "length": 32,
        "start": 1007
      },
      {
        "length": 32,
        "start": 1434
      },
      {
        "length": 32,
        "start": 2093
      },
      {
        "length": 32,
        "start": 2785
      }
    ]
  },
  "inputSourceName": "project/contracts/integrations/yellow/NitroliteAdapter.sol",
  "buildInfoId": "solc-0_8_27-a4ce4ddf3ea28c4cef5476a54bab7c350914f911"
}