{
  "_format": "hh3-artifact-1",
  "contractName": "MockPriceReader",
  "sourceName": "contracts/mocks/MockPriceReader.sol",
  "abi": [
    {
      "inputs": [
        {
          "internalType": "address",
          "name": "initialOwner",
          "type": "address"
        }
      ],
      "stateMutability": "nonpayable",
      "type": "constructor"
    },
    {
      "inputs": [
        {
          "internalType": "address",
          "name": "owner",
          "type": "address"
        }
      ],
      "name": "OwnableInvalidOwner",
      "type": "error"
    },
    {
      "inputs": [
        {
          "internalType": "address",
          "name": "account",
          "type": "address"
        }
      ],
      "name": "OwnableUnauthorizedAccount",
      "type": "error"
    },
    {
      "inputs": [],
      "name": "PriceNotAvailable",
      "type": "error"
    },
    {
      "inputs": [],
      "name": "UnsupportedSymbol",
      "type": "error"
    },
    {
      "anonymous": false,
      "inputs": [
        {
          "indexed": true,
          "internalType": "address",
          "name": "previousOwner",
          "type": "address"
        },
        {
          "indexed": true,
          "internalType": "address",
          "name": "newOwner",
          "type": "address"
        }
      ],
      "name": "OwnershipTransferStarted",
      "type": "event"
    },
    {
      "anonymous": false,
      "inputs": [
        {
          "indexed": true,
          "internalType": "address",
          "name": "previousOwner",
          "type": "address"
        },
        {
          "indexed": true,
          "internalType": "address",
          "name": "newOwner",
          "type": "address"
        }
      ],
      "name": "OwnershipTransferred",
      "type": "event"
    },
    {
      "anonymous": false,
      "inputs": [
        {
          "indexed": true,
          "internalType": "string",
          "name": "symbol",
          "type": "string"
        },
        {
          "indexed": false,
          "internalType": "uint256",
          "name": "price",
          "type": "uint256"
        }
      ],
      "name": "PriceUpdated",
      "type": "event"
    },
    {
      "anonymous": false,
      "inputs": [
        {
          "indexed": true,
          "internalType": "string",
          "name": "symbol",
          "type": "string"
        },
        {
          "indexed": false,
          "internalType": "bool",
          "name": "supported",
          "type": "bool"
        }
      ],
      "name": "SymbolSupported",
      "type": "event"
    },
    {
      "inputs": [],
      "name": "acceptOwnership",
      "outputs": [],
      "stateMutability": "nonpayable",
      "type": "function"
    },
    {
      "inputs": [
        {
          "internalType": "string",
          "name": "fromSymbol",
          "type": "string"
        },
        {
          "internalType": "string",
          "name": "toSymbol",
          "type": "string"
        },
        {
          "internalType": "uint256",
          "name": "amount",
          "type": "uint256"
        }
      ],
      "name": "convertAmount",
      "outputs": [
        {
          "internalType": "uint256",
          "name": "converted",
          "type": "uint256"
        }
      ],
      "stateMutability": "view",
      "type": "function"
    },
    {
      "inputs": [
        {
          "internalType": "string",
          "name": "symbol",
          "type": "string"
        }
      ],
      "name": "getPrice",
      "outputs": [
        {
          "internalType": "uint256",
          "name": "price",
          "type": "uint256"
        },
        {
          "internalType": "uint256",
          "name": "decimals",
          "type": "uint256"
        },
        {
          "internalType": "uint256",
          "name": "timestamp",
          "type": "uint256"
        }
      ],
      "stateMutability": "view",
      "type": "function"
    },
    {
      "inputs": [
        {
          "internalType": "string",
          "name": "baseSymbol",
          "type": "string"
        },
        {
          "internalType": "string",
          "name": "quoteSymbol",
          "type": "string"
        }
      ],
      "name": "getPriceRatio",
      "outputs": [
        {
          "internalType": "uint256",
          "name": "ratio",
          "type": "uint256"
        },
        {
          "internalType": "uint256",
          "name": "timestamp",
          "type": "uint256"
        }
      ],
      "stateMutability": "view",
      "type": "function"
    },
    {
      "inputs": [
        {
          "internalType": "string",
          "name": "",
          "type": "string"
        }
      ],
      "name": "isPriceFresh",
      "outputs": [
        {
          "internalType": "bool",
          "name": "",
          "type": "bool"
        }
      ],
      "stateMutability": "pure",
      "type": "function"
    },
    {
      "inputs": [],
      "name": "owner",
      "outputs": [
        {
          "internalType": "address",
          "name": "",
          "type": "address"
        }
      ],
      "stateMutability": "view",
      "type": "function"
    },
    {
      "inputs": [],
      "name": "pendingOwner",
      "outputs": [
        {
          "internalType": "address",
          "name": "",
          "type": "address"
        }
      ],
      "stateMutability": "view",
      "type": "function"
    },
    {
      "inputs": [
        {
          "internalType": "string",
          "name": "",
          "type": "string"
        }
      ],
      "name": "prices",
      "outputs": [
        {
          "internalType": "uint256",
          "name": "",
          "type": "uint256"
        }
      ],
      "stateMutability": "view",
      "type": "function"
    },
    {
      "inputs": [],
      "name": "renounceOwnership",
      "outputs": [],
      "stateMutability": "nonpayable",
      "type": "function"
    },
    {
      "inputs": [
        {
          "internalType": "string",
          "name": "symbol",
          "type": "string"
        },
        {
          "internalType": "uint256",
          "name": "price",
          "type": "uint256"
        }
      ],
      "name": "setPrice",
      "outputs": [],
      "stateMutability": "nonpayable",
      "type": "function"
    },
    {
      "inputs": [
        {
          "internalType": "string[]",
          "name": "symbols",
          "type": "string[]"
        },
        {
          "internalType": "uint256[]",
          "name": "newPrices",
          "type": "uint256[]"
        }
      ],
      "name": "setPrices",
      "outputs": [],
      "stateMutability": "nonpayable",
      "type": "function"
    },
    {
      "inputs": [
        {
          "internalType": "string",
          "name": "symbol",
          "type": "string"
        },
        {
          "internalType": "bool",
          "name": "supported",
          "type": "bool"
        }
      ],
      "name": "setSupportedSymbol",
      "outputs": [],
      "stateMutability": "nonpayable",
      "type": "function"
    },
    {
      "inputs": [
        {
          "internalType": "string",
          "name": "",
          "type": "string"
        }
      ],
      "name": "supportedSymbols",
      "outputs": [
        {
          "internalType": "bool",
          "name": "",
          "type": "bool"
        }
      ],
      "stateMutability": "view",
      "type": "function"
    },
    {
      "inputs": [
        {
          "internalType": "address",
          "name": "newOwner",
          "type": "address"
        }
      ],
      "name": "transferOwnership",
      "outputs": [],
      "stateMutability": "nonpayable",
      "type": "function"
    }
  ],
  "bytecode": "0x608060405234801561000f575f5ffd5b506040516110a83803806110a883398101604081905261002e916102c1565b806001600160a01b03811661005c57604051631e4fbdf760e01b81525f600482015260240160405180910390fd5b61006581610256565b50670de0b6b3a7640000600260405161008890635553444360e01b815260040190565b9081526040805191829003602001822092909255631554d11560e21b8082526002600480840182905284519384900360249081018520670de0b6b3a7640000908190556244414960e81b808752600380880186905288519788900360239081018920939093556242544360e81b8089528882018790528951988990038401892069098774738bc82220000090556208aa8960eb1b808a528983018890528a51998a900385018a2068878678326eac90000090556223262960e91b808b528a84018990528b519a8b900386018b206658d15e1762800090556205852560ec1b808c528b8501999099528b519a8b900386018b206706f05b59d3b200009055635553444360e01b8b528a88018490528b519a8b900387018b208054600160ff1991821681179092559a8c52978b018490528b519a8b90039096018a2080548a16881790559289528882018290528951988990038401892080548916871790558852878101819052885197889003830188208054881686179055908752868101819052875196879003820187208054871685179055918652858201829052865195869003810186208054861684179055928552848101529351928390030190912080549091169091179055506102ee565b600180546001600160a01b031916905561026f81610272565b50565b5f80546001600160a01b038381166001600160a01b0319831681178455604051919092169283917f8be0079c531659141344cd1fd0a4f28419497f9722a3daafe3b4186f6b6457e09190a35050565b5f602082840312156102d1575f5ffd5b81516001600160a01b03811681146102e7575f5ffd5b9392505050565b610dad806102fb5f395ff3fe608060405234801561000f575f5ffd5b50600436106100e5575f3560e01c806379ba509711610088578063dd671f5011610063578063dd671f5014610215578063e30c397814610229578063efe3bd121461023a578063f2fde38b14610262575f5ffd5b806379ba5097146101be5780638da5cb5b146101c6578063c3825f4b146101ea575f5ffd5b806327822749116100c3578063278227491461015457806331eb1d4414610167578063524f388914610188578063715018a6146101b6575f5ffd5b80631551b090146100e957806322e01192146100fe57806326f875b014610111575b5f5ffd5b6100fc6100f73660046109e2565b610275565b005b6100fc61010c366004610a34565b6102fb565b61013f61011f366004610a75565b805160208183018101805160038252928201919093012091525460ff1681565b60405190151581526020015b60405180910390f35b6100fc610162366004610b3a565b61039b565b61017a610175366004610c13565b610526565b60405190815260200161014b565b61019b610196366004610a75565b610634565b6040805193845260208401929092529082015260600161014b565b6100fc6106c4565b6100fc6106d7565b5f546001600160a01b03165b6040516001600160a01b03909116815260200161014b565b61017a6101f8366004610a75565b805160208183018101805160028252928201919093012091525481565b61013f610223366004610a75565b50600190565b6001546001600160a01b03166101d2565b61024d610248366004610c7f565b61071b565b6040805192835260208301919091520161014b565b6100fc610270366004610cd8565b610834565b61027d6108a4565b8060038360405161028e9190610d05565b908152604051908190036020018120805492151560ff19909316929092179091556102ba908390610d05565b6040519081900381208215158252907f8247287339e150ff9daaa98e72a67a311abe21d1735d99754d1f974aa3bd9969906020015b60405180910390a25050565b6103036108a4565b60016003836040516103159190610d05565b908152604051908190036020018120805492151560ff19909316929092179091558190600290610346908590610d05565b90815260405190819003602001812091909155610364908390610d05565b604051908190038120828252907f159e83f4712ba2552e68be9d848e49bf6dd35c24f19564ffd523b6549450a2f4906020016102ef565b6103a36108a4565b80518251146103eb5760405162461bcd60e51b815260206004820152600f60248201526e098cadccee8d040dad2e6dac2e8c6d608b1b60448201526064015b60405180910390fd5b5f5b8251811015610521576001600384838151811061040c5761040c610d1b565b60200260200101516040516104219190610d05565b908152604051908190036020019020805491151560ff19909216919091179055815182908290811061045557610455610d1b565b6020026020010151600284838151811061047157610471610d1b565b60200260200101516040516104869190610d05565b9081526020016040518091039020819055508281815181106104aa576104aa610d1b565b60200260200101516040516104bf9190610d05565b60405180910390207f159e83f4712ba2552e68be9d848e49bf6dd35c24f19564ffd523b6549450a2f48383815181106104fa576104fa610d1b565b602002602001015160405161051191815260200190565b60405180910390a26001016103ed565b505050565b5f6003846040516105379190610d05565b9081526040519081900360200190205460ff1661056757604051639a593f7f60e01b815260040160405180910390fd5b6003836040516105779190610d05565b9081526040519081900360200190205460ff166105a757604051639a593f7f60e01b815260040160405180910390fd5b5f6002856040516105b89190610d05565b90815260200160405180910390205490505f6002856040516105da9190610d05565b9081526020016040518091039020549050815f14806105f7575080155b156106155760405163579a480160e01b815260040160405180910390fd5b806106208386610d2f565b61062a9190610d58565b9695505050505050565b5f5f5f6003846040516106479190610d05565b9081526040519081900360200190205460ff1661067757604051639a593f7f60e01b815260040160405180910390fd5b6002846040516106879190610d05565b9081526020016040518091039020549250825f036106b85760405163579a480160e01b815260040160405180910390fd5b50909260129250429150565b6106cc6108a4565b6106d55f6108d0565b565b60015433906001600160a01b0316811461070f5760405163118cdaa760e01b81526001600160a01b03821660048201526024016103e2565b610718816108d0565b50565b5f5f60038460405161072d9190610d05565b9081526040519081900360200190205460ff1661075d57604051639a593f7f60e01b815260040160405180910390fd5b60038360405161076d9190610d05565b9081526040519081900360200190205460ff1661079d57604051639a593f7f60e01b815260040160405180910390fd5b5f6002856040516107ae9190610d05565b90815260200160405180910390205490505f6002856040516107d09190610d05565b9081526020016040518091039020549050815f14806107ed575080155b1561080b5760405163579a480160e01b815260040160405180910390fd5b8061081e83670de0b6b3a7640000610d2f565b6108289190610d58565b96429650945050505050565b61083c6108a4565b600180546001600160a01b0383166001600160a01b0319909116811790915561086c5f546001600160a01b031690565b6001600160a01b03167f38d16b8cac22d99fc7c124b9cd0de2d3fa1faef420bfe791d8c362d765e2270060405160405180910390a350565b5f546001600160a01b031633146106d55760405163118cdaa760e01b81523360048201526024016103e2565b600180546001600160a01b0319169055610718815f80546001600160a01b038381166001600160a01b0319831681178455604051919092169283917f8be0079c531659141344cd1fd0a4f28419497f9722a3daafe3b4186f6b6457e09190a35050565b634e487b7160e01b5f52604160045260245ffd5b604051601f8201601f191681016001600160401b038111828210171561096f5761096f610933565b604052919050565b5f82601f830112610986575f5ffd5b81356001600160401b0381111561099f5761099f610933565b6109b2601f8201601f1916602001610947565b8181528460208386010111156109c6575f5ffd5b816020850160208301375f918101602001919091529392505050565b5f5f604083850312156109f3575f5ffd5b82356001600160401b03811115610a08575f5ffd5b610a1485828601610977565b92505060208301358015158114610a29575f5ffd5b809150509250929050565b5f5f60408385031215610a45575f5ffd5b82356001600160401b03811115610a5a575f5ffd5b610a6685828601610977565b95602094909401359450505050565b5f60208284031215610a85575f5ffd5b81356001600160401b03811115610a9a575f5ffd5b610aa684828501610977565b949350505050565b5f6001600160401b03821115610ac657610ac6610933565b5060051b60200190565b5f82601f830112610adf575f5ffd5b8135610af2610aed82610aae565b610947565b8082825260208201915060208360051b860101925085831115610b13575f5ffd5b602085015b83811015610b30578035835260209283019201610b18565b5095945050505050565b5f5f60408385031215610b4b575f5ffd5b82356001600160401b03811115610b60575f5ffd5b8301601f81018513610b70575f5ffd5b8035610b7e610aed82610aae565b8082825260208201915060208360051b850101925087831115610b9f575f5ffd5b602084015b83811015610bdf5780356001600160401b03811115610bc1575f5ffd5b610bd08a602083890101610977565b84525060209283019201610ba4565b50945050505060208301356001600160401b03811115610bfd575f5ffd5b610c0985828601610ad0565b9150509250929050565b5f5f5f60608486031215610c25575f5ffd5b83356001600160401b03811115610c3a575f5ffd5b610c4686828701610977565b93505060208401356001600160401b03811115610c61575f5ffd5b610c6d86828701610977565b93969395505050506040919091013590565b5f5f60408385031215610c90575f5ffd5b82356001600160401b03811115610ca5575f5ffd5b610cb185828601610977565b92505060208301356001600160401b03811115610ccc575f5ffd5b610c0985828601610977565b5f60208284031215610ce8575f5ffd5b81356001600160a01b0381168114610cfe575f5ffd5b9392505050565b5f82518060208501845e5f920191825250919050565b634e487b7160e01b5f52603260045260245ffd5b8082028115828204841417610d5257634e487b7160e01b5f52601160045260245ffd5b92915050565b5f82610d7257634e487b7160e01b5f52601260045260245ffd5b50049056fea26469706673582212209a32aef45bbb179b47b2eeabf0a254117c3171fab7bc6ac19e2eb10032d0651564736f6c634300081b0033",
  "linkReferences": {},
  "deployedLinkReferences": {},
  "immutableReferences": {},
  "inputSourceName": "project/contracts/mocks/MockPriceReader.sol",
  "buildInfoId": "solc-0_8_27-07023069ffdb9ec047fc8d40bbd71f4f994a5ca3"
}